:020000040800F2
:10000000480B0020110300085D510008F13C000876
:1000100059510008D52700082D6500080000000090
:1000200000000000000000000000000023030008A2
:100030004D320008000000002703000829030008D3
:100040002B0300082B0300082B0300082B030008D8
:100050002B0300082B030008A53300082B0300081E
:10006000AD330008B53300082B0300082B0300084C
:100070002B0300082B0300082B0300082B030008A8
:100080002B0300082B0300082B0300082B03000898
:10009000D92700082B0300082B030008BD330008F4
:1000A0002B030008815F00082B0300082B030008C6
:1000B0002B0300082B0300082B0300082B03000868
:1000C0002B0300082B0300082B0300082B03000858
:1000D0002B0300082B0300082B0300082B03000848
:1000E0002B0300082B0300082B0300082B03000838
:1000F0002B0300082B0300082B0300082B03000828
:100100002B0300082B0300082B0300082B03000817
:100110002B0300082B0300082B0300082B03000807
:100120002B0300082B0300082B0300082B030008F7
:100130002B0300082B0300082B0300082B030008E7
:100140002B0300082B0300082B0300082B030008D7
:100150002B0300082B0300082B0300082B030008C7
:100160002B0300082B0300082B0300082B030008B7
:100170002B0300082B0300082B0300082B030008A7
:100180002B0300082B03000800F002F800F0B0F881
:1001900014A696E8000CB244B344DA4501D100F04D
:1001A000A7F8BAE80F000FA696E83000A5EB040503
:1001B00004EB0607AAEB0704A7F101074FEA1515A0
:1001C0004FEA3414A4F10104AC4201D300F090F8DA
:1001D00013F0010F18BFFB1A43F0010300F001F800
:1001E000DBE71847E473000004740000103A24BFF2
:1001F00078C878C1FAD8520724BF30C830C144BF8C
:1002000004680C6070470000704700000023002461
:1002100000250026103A28BF78C1FBD8520728BF16
:1002200030C148BF0B6070476E2900F0F181702922
:1002300000F02783662907F0EE80652907F0EB8040
:10024000672907F0E880612907F0E78003681B0A47
:1002500028BF41F08001692900F09E81642900F0E7
:100260009B81752900F098816F2900F0B58278296B
:1002700000F0F382E92900F04F82E42900F04C827B
:10028000F52900F04982EF2900F0B282F82900F048
:10029000F2820368DB0928BF41F08001632901F085
:1002A0000B80732901F01080E32901F01B80F329F2
:1002B00001F02080002070471FB507F09FF89DE8EF
:1002C000030001F037FB01F00BF9040000200021CE
:1002D00007F07EF8401C60600020002107F062F803
:1002E000E06001F00FF81FBD10B501F074F810BD0B
:1002F00001F0C8F81146FFF7DFFF06F081FB01F0BF
:100300008FFA03B4FFF7F0FF03BC01F0CFFC00004D
:100310000948804709480047FEE7FEE7FEE7FEE799
:10032000FEE7FEE7FEE7FEE7FEE7FEE704480549D5
:10033000054A064B704700000D5F00088901000860
:1003400048050020480B00204807002048070020EF
:1003500053EA020C23D010B54C1084EA530404D5A0
:100360004042C1F1000138BF491E1B4204D5524230
:10037000C3F1000338BF5B1E00F033F814F0804F68
:1003800004D04042C1F1000138BF491E14F0004FB3
:1003900004D05242C3F1000338BF5B1E10BD13B539
:1003A00040424FF0000070EB0104B8BF012001F0A3
:1003B000004100281CBF6FF000414FF0FF30AFF349
:1003C00000801CBD0FB4044910B503AA029800F0C8
:1003D00033F910BC5DF814FB7C00002070477047B7
:1003E000704753EA020C00F069802DE9F04B4FF0A2
:1003F0000006002B1FBFB3FA83F503FA05F424FAB5
:1004000005F65E4012BF1643B2FA82F502FA05F411
:10041000C5F120051EBF22FA05FC44EA0C04203574
:1004200056EA044C4FEA144418BF641C4FF000080D
:100430004FF00009904271EB030C39D3002919BF2A
:10044000B1FA81F701FA07F6B0FA80F700FA07F679
:10045000C7F120071EBF20FA07FC46EA0C0620372A
:10046000B6FBF4FCA7EB0507103F07F01F0BCBF121
:1004700020062CFA06F60CFA0BFB44BFB346002606
:10048000202FA4BF5E464FF0000B5BEA060C08BFAE
:100490004FF0010B19EB0B0948EB0608ABFB027C94
:1004A00006FB02CC0BFB03CCC01B71EB0C01C1E7BC
:1004B0000B46024641464846BDE8F08B13B508435B
:1004C00018BF4FF0FF300146AFF30080BDE81C407D
:1004D000704770B5044685690068C10601D53026AD
:1004E00000E02026C00707D070BDD4E901213046C6
:1004F0009047206A401C20626D1EF6D570BD70B515
:10050000044685690078C00707D170BDD4E9012190
:1005100020209047206A401C20626D1EF6D570BDD9
:1005200009684A0501D540B27047C905FCD500B23B
:10053000704709684A0501D5C0B27047C905FCD5A6
:1005400080B2704770B50C460546012A05D0287860
:10055000800600D5EA69002302E0012305E05B1C68
:10056000934202D2E05C0028F9D1A869E618C01ACB
:10057000A861286A184428622846FFF7AAFF04E009
:10058000D5E9012114F8010B9047B442F8D328466D
:10059000FFF7B5FF70BD00002DE9F04106460024CD
:1005A00010687529314616A510D0FFF7B9FF00284D
:1005B00002DA404213A507E031688A0701D512A587
:1005C00002E0490704D511A5012401E0FFF7B1FFBE
:1005D00000210A2206F1240709E0B0FBF2FCB0FB7F
:1005E000F2F302FB1C00303078541846491C0028F6
:1005F000F3D123462A463046BDE8F04100F055BA13
:10060000000000002D0000002B0000002000000072
:1006100011680268006A530501D508700AE0D30525
:1006200001D5088006E0130603D5C217C1E9000210
:1006300000E0086001207047074B70B50D467B4411
:1006400000F01DFE0446284600F058FE10B14FF0A1
:10065000FF3070BD204670BD8B6300002DE9FF5F49
:1006600015468A460446DFF8AC80F8440027D8E9EE
:1006700000103E46CDE9001010E03AF816106A4628
:1006800002A800F0DBFE411C07D02178890603D5C3
:10069000E269391891420DD80744761C207880060B
:1006A00002D5E069B84205DDAE42E6DB3AF8160055
:1006B0000028E2D1A069C01BA0612046FFF709FF16
:1006C000D8E90010CDE90010002017E03AF8181022
:1006D0006A4602A800F0B2FEB0F1FF3F81460BD09F
:1006E00000250DF1080B05E0D4E901211BF80500F8
:1006F00090476D1C4D45F7D308F10100B04280468C
:10070000E4DB206A384420622046FFF7F8FEBDE8AB
:10071000FF9F0000B26D00002DE9F0418046D21D20
:1007200022F007020025D2E90002F52915A614D00F
:10073000011E72F1000106DA0023D0EB030063EB27
:10074000020211A608E0D8F800108B0701D50FA609
:1007500002E0490701D50EA601251146002408F143
:10076000240704E000F05CF930323A55641C50EA8A
:100770000102F7D12B46324621464046BDE8F04102
:1007800000F093B9000000002D0000002B000000D5
:100790002000000030B4002100F1240408E002F041
:1007A0000705D208303542EA4372DB086554491C1C
:1007B00052EA0305F3D10468002310A2250708D5E7
:1007C00004F020040C4304D0C46901230CA2641E6D
:1007D000C46130BC00F069B910B504462146106808
:1007E000FFF7A7FE02462046BDE810400023D1E7F0
:1007F000D21D22F00701D1E90023CBE70000000061
:1008000030000000F0B40D460188090502D5214CE6
:100810007C4402E01F4C7C440E34002100F124068D
:1008200008E002F00F071209E75D42EA03721B09B4
:100830007754491C52EA0307F3D1027800231207C8
:1008400004D5702D06D009B1022311342246F0BC24
:1008500000F02BB901231034F8E770B504460D46BB
:1008600021461068FFF765FE024629462046BDE88E
:1008700070400023C6E7D21D22F00703D3E900230E
:10088000C0E70368126843F0200303600823C361D4
:100890000023B7E7146C00002DE9F05F8946044699
:1008A0004FF0000ADFF874B1FB44C0F820A02046E6
:1008B000E1688847002874D0252806D0D4E90121B2
:1008C0009047206A401C2062F1E700265F462046E0
:1008D000E16888472028054607DB312D05D27819C5
:1008E00010F8200C08B10643F1E7B00701D526F057
:1008F0000406C4F81CA00027C4F818A02A2D09D0AB
:10090000284606F047FD38B304EB8708303DC8F8A9
:10091000185019E059F8041B204604EB8702916136
:10092000E1688847012F054618D1E069002820DAE0
:1009300026F020061DE0D8F8180000EB800005EB3B
:1009400040003038C8F818002046E168884705465E
:1009500006F020FD0028EED1012F0AD02E2D08D15F
:100960002046E16888477F1C0546022F46F0200696
:10097000C4DBA069002803DA404246F00106A0610A
:10098000F00701D026F010066C2D0BD0682D09D091
:100990004C2D39D06A2D35D0742D35D07A2D33D0E9
:1009A00016E038E0E1682F4620468847B842054601
:1009B00009D16C2F26D04FF48060E16806432046B1
:1009C0008847054604E06C2F1AD04FF48070064328
:1009D0000DB3A5F14100192802D8203546F4006670
:1009E0004A462946204626604E46FFF71DFC80B148
:1009F00001280BD0F61D26F0070000F1080956E784
:100A00004020E4E78020D8E70020D6E706F104097B
:100A10004DE7284652E7206ABDE8F09FA46B00002E
:100A200030B5B0F10A0271F100034FEA900E4EEAC0
:100A3000817EB0EB0E0061EB91014FEA101E4EEA91
:100A4000017E10EB0E0041EB11114FEA102E4EEA21
:100A5000016E10EB0E0041EB11214FEA104E4EEAF1
:100A6000014E10EB0E0041EB1141401841F1000125
:100A70004FEAD00040EA41704FEAD1014FEA8104C9
:100A800044EA907410EB800544EB01046D1944EBCB
:100A90000404521BA3414FF0000348BF0A3200D5A3
:100AA00030BD401C41F1000130BD2DE9F0470D463D
:100AB00099469246044600F124080168880604D548
:100AC000E06921F01001216000E00120A84201DD71
:100AD000471B00E00027A1697A1902EB0900081AF8
:100AE000A0612078C00602D42046FFF7F2FC002661
:100AF00008E0D4E901211AF806009047206A401C5A
:100B0000761C20624E45F4DB2078C0060AD52046CC
:100B1000FFF7DFFC06E0D4E9012130209047206A8E
:100B2000401C2062381EA7F10107F4DC07E0D4E97D
:100B3000012118F805009047206A401C2062281EF9
:100B4000A5F10105F3DC2046FFF7D9FC207800066B
:100B500002D50220BDE8F0870120FBE72DE9FF4F19
:100B60000C461E464FF0FF378BB0D2E90001DDF88E
:100B700060800A908A46C1F30A5505B93D460021B6
:100B800008464FF00000BAF1000F00F4400005DA0B
:100B900000EB80004FF4400101EA50004FEA905909
:100BA000B9F1010F00DDB9460A9850EA4A000ED0AB
:100BB00044F61050A5F2FF3545432F14B8F1000F4D
:100BC0001ED07542291E1EDDC9F100021CE0B8F1DD
:100BD000010F4FF0000001D0302103E0F24305E0A7
:100BE0002154401CB042FBDB30460022002121543E
:100BF0000B99C1F80880C1E900200FB0BDE8F08F63
:100C0000BD1B6D1CDEE74A4600DA694206A800F00B
:100C1000D3FC06AB93E8070003AB83E8070050461C
:100C20000A9905F0D6FF8DE80700A0F500501F389F
:100C300000900398002D0ADD42F21F014A46084445
:100C4000002303A90390684606F040FA09E0A0F5E6
:100C500000504A461F38002303A90390684606F057
:100C60004AFA8DE807000004000C03D04FF0FF3073
:100C7000410800E01046B8F1000F03D000220092B6
:100C800015461EE0751E05D4FFF7CAFE30326255C8
:100C90006D1EF9D5B3460122084302D000227F1C05
:100CA00004E02078302801D100227F1E002A099715
:100CB00084D01DE0112D07DAFFF7B2FE3032625505
:100CC0006D1C50EA0102F5D1084302D00098C8B16A
:100CD0000EE00021681E05E0235C625C6354225430
:100CE000401E491C8142F7DBAB46A81B401E099001
:100CF000002004F80B000B98099AC0F80880C0E99E
:100D0000002B7AE711264FF0000857E72DE9F04F46
:100D100088460446D21D22F0070191B0D1E90001B6
:100D2000CDE90A0106F01EFB02460B98C00F01D068
:100D30002D2007E02068810701D52B2002E020212B
:100D400001EAC000032A099001D0072A05DB034607
:100D50004146204600F0F0FB0BE12078800601D5EB
:100D6000E06900E00620B8F1650F814606D0B8F1D1
:100D7000660F18D0B8F1670F70D131E00020B9F1DB
:100D8000110F009001DB112301E009F101030AAA10
:100D900001A90CA8FFF7E2FEDDE90C70002609F1BD
:100DA0000105834647E001204B4600904FF0004785
:100DB0000AAA01A90CA8FFF7D1FEDDE90DB00C9934
:100DC0005D46002610B909F101000D18B9EB0500C8
:100DD00003D4C0F1FF3609F10105A5EB09002BE0B2
:100DE000B9F1010F01DA4FF001090020B9F1110F3B
:100DF0000090484601DD112300E003460AAA01A93C
:100E00000CA8FFF7ABFEDDE90C704D4600268346CB
:100E1000207800070AD4AB4500DA5D4601A8012D11
:100E200004DD411911F8011C302907D04F4502DAC1
:100E300017F1040F04DA012082460FE06D1EEEE781
:100E4000002F02DCED1B3E4403E0781CA84200DDCD
:100E50007D1CB81B00F1010A4FF000472078000705
:100E600003D4AA4501DB4FF0FF3A0021B7F1004F50
:100E70000DF143088DF8431024D002202B23002FBE
:100E800001DA7F422D230A21021EA0F1010000DCBD
:100E90005FB197FBF1FC97FBF1F201FB1C7C17465D
:100EA0000CF1300C08F801CDEEE7A8F10100037059
:100EB0002188090501D5452100E06521A0F101083F
:100EC00000F8011C09980FA9A1EB0807FF1D00B14C
:100ED0000120411901EBEA70A1693844081A401E4B
:100EE000A0612078C00602D42046FFF7F2FA0998E4
:100EF00028B1D4E901219047206A401C2062207863
:100F0000C00622D52046FFF7E4FA1EE0002E04DBDF
:100F1000B34502DD01A8805D00E03020D4E9012165
:100F20009047206A401C2062761CAAF101005FEA0B
:100F3000000A0AD100F0D4FAC0680168405CD4E924
:100F400001219047206A401C2062281EA5F101055E
:100F5000DCDC07E0D4E9012118F8010B9047206A96
:100F6000401C2062381EA7F10107F3DC2046FFF782
:100F7000C6FA032011B041E62DE9F04F04460D46B4
:100F8000D21D22F0070089B0D0E9009748463946C3
:100F900006F0E8F90246F80F01D02D2307E020689B
:100FA000810701D52B2302E0202101EAC0038DF83F
:100FB00020300BB1012000E00020032A824601D03E
:100FC000072A04DB2946204600F0B6FA3FE12078E4
:100FD000800601D40D2500E0E569C7F30A560D2D02
:100FE00049DA00214FEA175B08464FF00000002F56
:100FF00000F4400007DA00EB80004FF4400100EB02
:10100000D07001EA60008115012901DD4FF0FF3148
:1010100000224FEA850CBCF1180F06D31346ACF141
:1010200018004FF08052C24003E04FF4801323FABF
:101030000CF30CF10C0CBCF1200F04D3ACF1200C20
:1010400009FA0CF001E007FA0CF000294FF0004813
:1010500001DD18B90FE00ED140450CD319EB0209A0
:101060005F4121B9404502D19F4329EA0209BBEB08
:10107000175F00D0761C2088000502D57B48784495
:1010800002E07A487844193808AA302302F80A3076
:10109000037C0AF10101002E0AF1020A53546A4648
:1010A00002DC4FF0300101E04FF031014FF0010858
:1010B0008DF8001002D0A6F2FF3603E059EA47018E
:1010C00000D06B4E002D02DC2178090704D54FF0CB
:1010D00002082E218DF80110C44600210BE0C7F351
:1010E00003433F01C35C491C6D1E02F8083005290B
:1010F00008F1010801DA002DF1DC00210CE000EB21
:101100001973491C1B786D1E082902F808304FEA34
:10111000091908F1010801DA002DF0DC21688B06BD
:1011200002D516E0A8F10108E04505DD02EB080351
:1011300013F8013C302BF5D0B8F1000F09DD02EBBC
:10114000080313F8013C2E2B03D1090701D4A8F1A1
:101150000108002D05DD3E2102F808106D1E08F182
:101160000108407C002E02F8080008F1010804DAAA
:101170002D20764202F8080002E02B2002F8080039
:101180000A214FF47A70864208F101080BDB96FBC6
:10119000F0F3303302F8083096FBF0F308F1010861
:1011A00000FB136601E0642E0CDB642096FBF0F379
:1011B000303302F8083096FBF0F308F1010800FB29
:1011C000136601E00A2E06DB96FBF1F0303002F8E0
:1011D000080008F1010896FBF1F001FB10603030C7
:1011E00002F80800A16908F1010808EB050202EB0A
:1011F0000A00081AA0612078C00602D42046FFF732
:1012000068F9216A08AE01EB0A00206204E0D4E923
:10121000012116F8010B9047BAF1010AF7D22078A4
:10122000C00602D52046FFF754F96E4609E016F8CD
:10123000010B3E280FD0D4E901219047206A401CC1
:101240002062B8F10108F2D22046FFF758F909B040
:101250000320BDE8F08F206A2844206203E0D4E92F
:101260000121302090476D1EEBD3F8E7F2630000B8
:1012700002FCFFFF01694A1C02610878704700B553
:101280008FB0CDE901310021059105497944CDE9BF
:10129000031011466846FFF7FFFA0FB000BD0000CB
:1012A000E5FFFFFF10B5436913B1AFF3008001E024
:1012B000FFF748F9012010BD127800F124010A70EF
:1012C00000224A700122EDE711684FF0FF32E9E792
:1012D00010B5436913B1AFF3008001E0FFF7BEF929
:1012E000012010BD128800F1240182840022C284F2
:1012F0000122EDE711684FF0FF32E9E7007B00F0D3
:101300008000704710B54248542100F099FA4148D6
:10131000542100F095FA4048542100F091FA3F49D9
:101320003B483C4A3F4B08603D490A603A491960D6
:10133000531C0365481C1065012008653B48344A6E
:1013400039A1784400F0CEF920B9384878440A38F9
:1013500000F06FFA37482F4A35A1784400F0C2F9FF
:1013600020B9344878440A3800F063FA32482A4AEF
:101370002FA1784400F0B6F920B92F4878440A38F4
:1013800000F057FA40232248DC000021224600F0FA
:1013900085F920B125487844543800F04AFA1D48B0
:1013A00022464023002100F079F920B121487844F9
:1013B000543800F03EFA184822461023002100F06D
:1013C0006DF9002806D01C487844BDE81040563816
:1013D00000F02FBA10BD104870B5006D20F0010468
:1013E0000B4800F0F7F90B4800F0F4F90A4800F058
:1013F000F1F909E0206D20F00105204600F0EAF93E
:10140000204600F071F82C46002CF3D170BD00008E
:10141000280000207C000020D000002000000020D8
:10142000040000200800002072000000416100005C
:10143000770000002D610000196100002DE9F041E6
:1014400016460C46054600F043F8036893F8010180
:10145000012807D0FF2C12D8185D80B101202C7014
:10146000BDE8F081D3F807013246214603F20713A5
:10147000C7182846BC46BDE8F041002360474FF03E
:10148000FF30EDE7754600F035FAAE4605006946D7
:10149000534620F00700854618B020B5FEF746FFFA
:1014A000BDE820404FF000064FF000074FF0000865
:1014B0004FF0000BAC46ACE8C009ACE8C009ACE8A2
:1014C000C009ACE8C00921F007018D467047000053
:1014D00010B500F005F8001D10BD00BFF55E00005E
:1014E000004870474401002070B50446051F00F015
:1014F00005FA0068002C14BF446870BD002C18BFAA
:10150000AC423CBF20466468F8D301680A18AA427E
:1015100018BF456003D12A68054611440160286858
:101520004119A1421CBF6C6070BD6168696021688F
:101530000844286070BD00002DE9F0411F460446B4
:1015400003260168072A01F4006004DB08B116A530
:1015500005E016A503E008B115A500E015A521F0EA
:1015600010002060A069C01EA0610FB1401EA061E4
:101570002046FEF7AEFF4FB1D4E90121384690472F
:10158000206A401C2062C01C206206E0206AFAE744
:10159000D4E9012115F8010B9047761EF8D22046B8
:1015A000FEF7ADFFBDE8F0814E414E006E616E006A
:1015B000494E4600696E66002DE9F04781461646A1
:1015C0008AB0354878440DC88DE80D00324878441B
:1015D000801C03AC0DC884E80D0041F69B30084424
:1015E000372190FBF1F290FBF1F5A5F1800501FBAD
:1015F00012041B3C02D56442012000E00020DFF809
:1016000098A080460027FA44AAF1BE0A0EE0E0073F
:101610000AD03246684607EB470101230AEB8101F5
:1016200005F069FD8DE8070064107F1C002CEED1E9
:10163000194F7F44AE3F19E0E80715D007EB0410BF
:101640000DF1180A90E80E008AE80E00C068F0421A
:1016500001D1981908903246012306A903A805F084
:101660004AFD03AB83E807006D10641C002DE3D135
:101670004FF0010332466946B8F1000F03A802D0CB
:1016800005F024FD01E005F036FDC9E90001C9F8C7
:1016900008200AB0BDE8F087485F000070B5C46854
:1016A000A50713D0650211D4B2F5807F09D0B2F539
:1016B000007F06D0B2F5806F08D1012300F124012C
:1016C00006E05D1E6FF07F46B54201D3012070BD7C
:1016D0000161C361416024F470611143C160002065
:1016E00070BD00002DE9F0410C461646070047D0BA
:1016F000104600F06FF82078611C61280AD072282B
:1017000002D077283CD102E00125002405E0022523
:10171000042402E0082448F2020511F8010B2B28EA
:1017200006D0622809D011F8010C74280AD00BE009
:1017300045F0030544F00204EFE745F0040544F0EA
:101740000104EAE744F010043846214600F09FF80F
:10175000411C15D00021316171604FF40071F560BA
:10176000F1617061200704D530460222002100F0AB
:101770003FF9306D40F0010030653046BDE8F08142
:101780000020FBE72DE9F0410D460646104C206D88
:10179000C10704D0410804D020F00104F7E7224635
:1017A0000EE0542000F0F5F807000ED0206D47F051
:1017B0000101084354212065384600F041F83A46BB
:1017C00029463046BDE8F0418CE70020D6E700000E
:1017D000280000202DE9F04704464FF0FF3800268E
:1017E000C568D4E90497A80718D0204600F0BCF9D2
:1017F000384600F056F8002800DA4646280502D59B
:101800004846FFF771FE4C21204600F019F8206D84
:1018100020F0010020653046BDE8F0874046FBE738
:1018200010B50446AFF300802046BDE81040FEF737
:1018300068BD10B500F0E2F9BDE8104000F0D8B97D
:101840004FF0000200B5134694469646203922BF59
:10185000A0E80C50A0E80C50B1F12001BFF4F7AFA4
:10186000090728BFA0E80C5048BF0CC05DF804EB86
:10187000890028BF40F8042B08BF704748BF20F8F4
:10188000022B11F0804F18BF00F8012B70470EB5E6
:10189000CDE9000100F072FA029069460120ABBE6A
:1018A0000EBD08B5694600900220ABBE08BD1FB54D
:1018B0008DE8070069460520ABBE04B010BD1FB51A
:1018C0008DE80F0069460620ABBEF6E708B569460D
:1018D00000900920ABBE08BD1CB5CDE900016946EA
:1018E0000A20ABBE1CBD704708B5694600900C20AD
:1018F000ABBE08BD00487047240100200048704777
:101900002C010020704770477047704738B5044677
:101910000A4600206946AFF30080002808BF38BDA2
:1019200002460099204600F0CEF9012038BD012082
:1019300000F01DBAF8B5AFF30080054600200C4654
:101940000C2000BF0646A819A0420DD932466946B0
:101950000020AFF30080070008BF00F008FA0098ED
:10196000A04218BF0546C419FFF7C8FF0560074627
:10197000F01D20F007004619284600F09EF9B442F9
:1019800008BFF8BDA21B31463868BDE8F84000F03A
:101990009AB970B50646FFF7B1FF056806F10B006E
:1019A00020F00704B4429CBF002070BD2B466A683B
:1019B000BAB11068A04210D304F1080188423CBFBC
:1019C0005068586007D35168101941601168091BAD
:1019D000016058601460101D70BD13465268002AE3
:1019E000E7D121462846FFF791FF0028DED170BDE0
:1019F0002DE9F041044616460D464769007B8007F5
:101A00002ED03846FFF762FF50BB3EB3012E02D006
:101A1000022E25D104E0204600F06FF905441DE0B8
:101A20003846FFF761FFE168002841F01001E160EE
:101A300005DA204600F058F80120BDE8F081C9031E
:101A40000BD56268E16A914200D81146A26911443F
:101A50002269891A814200DD08460544002D01DA19
:101A60000220EAE7E16A6068E268814206D29103F7
:101A7000E06203D522F4003141F01002A66900278C
:101A8000AE4213DCE16A814201D90B4600E0034615
:101A900003EB060C2369ACEB030CAC4506DD81427D
:101AA00001D98C4600E084469C4505D1A76027609B
:101AB00042F02000A5620DE0AD1BE669AE1B81423D
:101AC000A66000D90846C01A281A2060581960601C
:101AD00022F0200003490840E060002084F84870AC
:101AE000ABE70000BFCFD7FFC16821F4001141F080
:101AF0008001C16000218160016070472DE9F74FCE
:101B000015460C464FF0FF3B3848D768D2F814A072
:101B1000074209D05046A969FFF7DEFE002819DB0D
:101B20003248C0430740EF604FF000496FF0004873
:101B30004C4501D3464600E0264600993B465046B8
:101B40003246FFF7B4FEA96920F00042B21A1144F0
:101B5000A96128B12846FFF7C7FF5846BDE8FE8FA8
:101B6000A41BE5D10020F9E770B504460569C06AF9
:101B70006168884200D80846E16821F42011E160DC
:101B8000C90312D5A84208D02246411B2846FFF7B8
:101B9000B5FF10B14FF0FF3070BD0020E562C4E921
:101BA0000150E06820F48030E060002070BD10B586
:101BB0000446C06820F02000E060A16AA069884265
:101BC0000DD02046FFF7D0FFE06820F4405040F0F1
:101BD0001000E060A06AA0612069E062606044F2E9
:101BE0004001E0688843E06010BD00001000020082
:101BF000002801D000F05AB87047000010B5014627
:101C000002A000F09BF8012010BD0000534947528C
:101C1000545245443A2052656469726563743A20AF
:101C200063616E2774206F70656E3A2000000000BB
:101C300030B44FF0013C50F8042B51F8043BCCFA7F
:101C400052F4D51A20D1FCB950F8042B51F8043BBA
:101C5000CCFA52F4D51A17D1B4B950F8042B51F874
:101C6000043BCCFA52F4D51A0ED16CB950F8042BBF
:101C700051F8043BCCFA52F4D51A05D1002CDAD035
:101C800030BC4FF00000704729BAB1FA81F111F071
:101C90001801D1F120008440F2D1CA40CB4012F0AB
:101CA000FF0213F0FF0330BCD01A7047014918201F
:101CB000ABBEFEE7260002007047002101604160D4
:101CC00070470C207047034640688C46002818BFB8
:101CD00088423CBF03464068F8D3186818448842DD
:101CE00007D00CF1030020F00700001D411A521A22
:101CF0000146081D0A60FFF7F7BB10B50146C26830
:101D0000900703D0900607D5886A0AE000F05CF8D7
:101D100001210160881E10BD8B69486818440B6959
:101D2000C01A91F848301BB191F84910401A10BD03
:101D30001103FCD50028FADD401E10BD70B5054624
:101D40000C460A2000E06D1C00F037F835B1287809
:101D50000028F8D102E0641C00F02FF814B12078BC
:101D60000028F8D1BDE870400A2000F026B810B570
:101D700000F02EF8BDE81040FFF73ABF10B5431C45
:101D800002E010F8011B71B18107FAD14FF0013266
:101D900002C88C1A8C4314EAC211F9D0C01A0A0680
:101DA00003D0C01E10BDC01A10BD0A0401D0801E91
:101DB00010BD0902FCD0401E10BD08B569468DF863
:101DC00000000320ABBE08BD00487047240100207E
:101DD00010B5012805D0002103A0FFF7AFFF0120B7
:101DE00010BD09A1F8E7000053494752544D454D35
:101DF0003A204F7574206F662068656170206D65AC
:101E00006D6F7279000000003A2048656170206DA6
:101E1000656D6F727920636F72727570746564009E
:101E200082B001908DF803109DF8030030B1FFE7F8
:101E30000199886840F00100886005E00199886890
:101E400020F001008860FFE702B0704782B0019087
:101E50000020009042F20431C4F2010108680090B1
:101E6000009843F2E002CFF6FC7210400090019A15
:101E70001068D2F804C09368D26840EA0C00184396
:101E800002430098104300900098086002B0704729
:101E900081B0009000990020086000994860009986
:101EA00088600099C86001B07047000081B0009060
:101EB0000098C06C80B201B07047000082B0019001
:101EC0008DF8031000208DF80200019800689DF83D
:101ED0000310084204D0FFE701208DF8020003E060
:101EE00000208DF80200FFE79DF8020002B0704765
:101EF00084B003900291002001908DF803000398B4
:101F00004068019001984FF6FF61CFF6FF4108400D
:101F1000019002980179006840EA01210198084384
:101F20000190019803994860039880680190019896
:101F30004FF2FD71CCF2FF0108400190029908694F
:101F4000CA6810438A681043497940EA4101019800
:101F5000084301900198039988600398C06A019032
:101F6000019820F4700001900298007D411E9DF8B8
:101F7000030008438DF803009DF80310019840EA20
:101F80000150019001980399C86204B070470000A5
:101F900084B003908DF80B108DF80A208DF809306D
:101FA0000020019000909DF80B000A2821DBFFE73C
:101FB0000398C06801909DF80B0000EB4000A0F171
:101FC0001E010720884000900099019888430190E5
:101FD0009DF809009DF80B1001EB41011E39884066
:101FE0000090009901980843019001980399C860F6
:101FF0001DE00398006901909DF80B0000EB400183
:1020000007208840009000990198884301909DF82E
:1020100009009DF80B1001EB4101884000900099E8
:10202000019808430190019803990861FFE79DF822
:102030000A00062820DCFFE70398406B01909DF81A
:102040000A0000EB8000411F1F208840009000998B
:102050000198884301909DF80B009DF80A1001EB50
:10206000810105398840009000990198084301904A
:1020700001980399486347E09DF80A000C2821DC89
:10208000FFE70398006B01909DF80A0000EB8000C9
:10209000A0F123011F2088400090009901988843F7
:1020A00001909DF80B009DF80A1001EB8101233986
:1020B0008840009000990198084301900198039985
:1020C000086320E00398C06A01909DF80A0000EBC5
:1020D0008000A0F141011F208840009000990198E4
:1020E000884301909DF80B009DF80A1001EB8101D7
:1020F0004139884000900099019808430190019867
:102100000399C862FFE7FFE704B0704781B0009011
:102110000099886840F08040886001B070470000F6
:1021200081B0009000990020086000990871009922
:102130004871009988600099C86000990861009909
:102140000120087501B0704780B582B08DF8070096
:102150009DF8070040F21F01C2F20001087040F232
:10216000A811C2F200010868013008609DF807005C
:1021700028B1FFE741F2883001F00EFA03E00020B9
:1021800001F00AFAFFE702B080BD000082B00090C3
:10219000009841F65931884204D3FFE741F65830A0
:1021A000019002E000980190FFE7019802B07047AB
:1021B00080B584B0039003F053FB029003984FF472
:1021C0007A7148430190FFE703F04AFB0299401AF5
:1021D0000199884201D2FFE7F6E704B080BD000014
:1021E00080B504F0F3F903F005FD01F0B1F902F058
:1021F00053FA80BD80B582B040F22C20C2F20000BC
:10220000408940F21F01C2F20001097803F056FA3A
:102210008DF8070040F21050C2F20000007838B983
:10222000FFE740F21051C2F2000101200870FFE701
:102230009DF80700FFF788FF02B080BD80B586B02B
:1022400003F00EFB059040F21200C2F2000000788D
:10225000002800F09B80FFE7059840F23C51C2F255
:1022600000010968401A42F210718842C0F08E8065
:10227000FFE7059840F23C51C2F20001086040F2CD
:10228000A410C2F20000B0F900100020039089B938
:10229000FFE740F2C010C2F20000B0F900100020C9
:1022A000039039B9FFE702F0FBF9B0FA80F040097A
:1022B0000390FFE7039800F001008DF813009DF8EC
:1022C000130040F28411C2F2000108709DF813005F
:1022D000E8B3FFE740F2F440C2F20000006838B90A
:1022E000FFE7059840F2F441C2F200010860FFE701
:1022F000059840F2F441C2F200010968401A48F220
:10230000A061C0F20101884211D3FFE740F2C6117B
:10231000C2F2000102200190087001200021029108
:1023200004F0D2FA0198029904F0CEFA0EE040F2DD
:10233000C611C2F20001012008700021009104F0D2
:10234000D1FA0099022004F0CDFAFFE71DE040F237
:10235000F441C2F200010020086040F2C611C2F24E
:1023600000010120087040F2A411C2F20001B1F98D
:10237000001004F0B7FA40F2C010C2F20000B0F949
:102380000010022004F0AEFAFFE7FFE706B080BDC0
:1023900080B58CB003F064FA0B9040F22C20C2F2AE
:1023A00000000290408803F0A3F801460298ADF8BF
:1023B0002A10008803F09CF8014602984942ADF8C3
:1023C000281040885021009103F060F800990246DF
:1023D00002988DF82720008803F058F801460298EB
:1023E0008DF8261040887821019103F04FF801996B
:1023F000024602988DF82520008803F047F8014630
:1024000002988DF82410808803F0E6F801460298BF
:10241000ADF82210C08803F01FF9014602988DF82C
:102420002110008903F018F9014602988DF8201058
:10243000408940F21F01C2F20001097803F03EF921
:102440008DF81F00BDF92A00BDF82210484344F65C
:10245000D351C1F2620150FB01F2901100EBD27036
:102460000690BDF92800BDF82220504350FB01F131
:10247000881100EBD17005909DF8270058B1FFE757
:102480009DF8260038B1FFE740F21E01C2F20001BC
:102490000120087017E040F21E00C2F20000007830
:1024A00080B1FFE79DF8250020B1FFE79DF82400EB
:1024B00038B9FFE740F21E01C2F2000100200870A7
:1024C000FFE7FFE7FFE740F21E00C2F200000078DE
:1024D00040B1FFE70020ADF82A00ADF828000490D5
:1024E00003900FE0BDF9280030B1FFE70598049094
:1024F00005984042039004E00698049006980390E3
:10250000FFE7FFE70498B0F57A7F04DDFFE74FF4BB
:102510007A7004900BE0049810F57A7F06DAFFE7F2
:102520004FF61840CFF6FF700490FFE7FFE70398DF
:10253000B0F57A7F04DDFFE74FF47A7003900BE08B
:10254000039810F57A7F06DAFFE74FF61840CFF6CA
:10255000FF700390FFE7FFE7BDF82A0040F2BE11CD
:10256000C2F200010880BDF8280040F2C411C2F296
:1025700000010880BDF8220040F2C211C2F2000141
:1025800008809DF8200040F20D01C2F200010870A1
:10259000BDF8220002F0B8FB02F082F8B0B1FFE70C
:1025A00040F21020C2F200000088404240F2A41124
:1025B000C2F20001088040F21820C2F20000008838
:1025C00040F2C011C2F2000108801FE0049849F6F1
:1025D0004042504344F6D351C1F2620150FB01F333
:1025E000980900EBD370404240F2A413C2F20003FA
:1025F00018800398504350FB01F1880900EBD1701B
:1026000040F2C011C2F200010880FFE79DF82000EF
:10261000022808D1FFE740F20E01C2F2000140F2A9
:10262000F260088014E09DF8200040B9FFE740F216
:102630000E01C2F2000140F2D360088007E040F2D0
:102640000E01C2F2000140F2DC500880FFE7FFE714
:1026500040F20E00C2F20000008802F099FF40F242
:102660003441C4F20001086040F21050C2F2000090
:102670000078D8B9FFE79DF81F0040F21F01C2F2B1
:10268000000108709DF8210040F22001C2F2000113
:1026900008700B9840F21451C2F20001086040F239
:1026A0001051C2F20001012008700FE09DF81F00D8
:1026B00040F21F01C2F200010978884205D0FFE70D
:1026C0009DF81F00FFF740FDFFE7FFE79DF82100A1
:1026D00028B1FFE79DF82100022861D1FFE79DF8AE
:1026E000210040F22001C2F20001097888420ED197
:1026F000FFE70B9840F21451C2F200010968401A3A
:102700004DF29001C0F20301884248D3FFE79DF8E3
:10271000210040BBFFE740F2BC11C2F20001FF20E4
:10272000087040F2B410C2F20000006840F21001DC
:10273000C2F20001098888420FD9FFE740F2B410C5
:10274000C2F20000006840F21001C2F200010988E4
:10275000401A782100F02AFF04E00020782100F0E0
:1027600025FFFFE714E040F2BC11C2F20001012096
:10277000087040F2B410C2F20000006840F210018C
:10278000C2F2000109880844782100F00FFFFFE73A
:102790000B9840F21451C2F200010860FFE710E00C
:1027A0009DF8210001280BD1FFE740F22000C2F282
:1027B00000000078012803D0FFE701F091F9FFE75E
:1027C000FFE79DF8210040F22001C2F200010870ED
:1027D0000CB080BDFFE7FEE780B503F04BFF80BD86
:1027E00083B00290019101980090012833D0FFE757
:1027F0000098042836D0FFE70098082836D0FFE775
:102800000098202836D0FFE70098402836D0FFE710
:102810000098B0F5807F3DD0FFE70098B0F5007FCD
:102820003CD0FFE70098B0F5806F3BD0FFE7009801
:10283000B0F5006F3AD0FFE70098B0F5004F3CD0FC
:10284000FFE70098B0F5803F1CD0FFE70098B0F597
:10285000003F1BD038E0029940F20110C0F20100A5
:10286000886032E002990820C8602EE002991020AA
:10287000C8602AE002990820086126E00299102029
:10288000086122E00299082048601EE002991020A9
:1028900048601AE002990420486016E0029904207A
:1028A000486012E00299042048600EE0029900207E
:1028B000886102990420486007E00299002088613D
:1028C00002990420486000E0FFE703B07047000071
:1028D00080B584B00390039846F20041C4F2000131
:1028E00088420BD1FFE74FF000700290012102F007
:1028F000E3FC0298002102F0DFFC0AE04FF0806068
:102900000190012102F0D8FC0198002102F0D4FCD2
:10291000FFE704B080BD000082B00190002000906D
:102920000198817A01208840009046F20061C4F24B
:102930000001086840F001000860009A46F21C613E
:10294000C4F200010868904308600198007B08BB4E
:10295000FFE7009A46F20C61C4F200010868904358
:1029600008600199CA88488840EA02408A7A46F29B
:102970004061C4F2000141F8320001998A88088858
:1029800040EA02408A7A46F24461C4F2000141F80A
:102990003200FFE70198007B012821D1FFE7009A70
:1029A00046F20C61C4F20001086810430860019906
:1029B0000A88488840EA02408A7A46F24061C4F2B6
:1029C000000141F8320001998A88C88840EA024033
:1029D0008A7A46F24461C4F2000141F83200FFE70E
:1029E0000198C07A48B9FFE7009A46F20461C4F240
:1029F000000108689043086008E0009A46F204610C
:102A0000C4F20001086810430860FFE701980089DC
:102A100048B9FFE7009A46F21461C4F20001086861
:102A200090430860FFE701980089012809D1FFE77A
:102A3000009A46F21461C4F200010868104308606D
:102A4000FFE70198407B012809D1FFE7009A46F291
:102A50001C61C4F20001086810430860FFE746F2F9
:102A60000061C4F20001086820F00100086002B0B3
:102A70007047000080B584B00390029100208DF86B
:102A80000700039840690299084200F0B980FFE707
:102A90000298009001283BD0FFE70098022842D01E
:102AA000FFE70098042846D0FFE7009808284AD09E
:102AB000FFE7009810284ED0FFE70098202852D05A
:102AC000FFE70098402856D0FFE70098B0F5807FD8
:102AD00069D0FFE70098B0F5007F6CD0FFE7009861
:102AE000B0F5806F6FD0FFE70098B0F5006F72D03F
:102AF000FFE70098B0F5004F75D0FFE70098B0F5FC
:102B0000803F40D0FFE70098B0F5003F43D072E02F
:102B10000398806840F20111C0F2010100F07EFBD1
:102B20008DF807006BE00398C068032100F076FB86
:102B30008DF8070063E00398C068082100F06EFB81
:102B40008DF807005BE00398C068102100F066FB79
:102B50008DF8070053E003980069032100F05EFB45
:102B60008DF807004BE003980069082100F056FB40
:102B70008DF8070043E003980069102100F04EFB38
:102B80008DF807003BE003984068082100F046FB01
:102B90008DF8070033E003984068102100F03EFBF9
:102BA0008DF807002BE003988069012100F036FBC7
:102BB0008DF8070023E003988069022100F02EFBC6
:102BC0008DF807001BE003988069042100F026FBC4
:102BD0008DF8070013E003988069702100F01EFB58
:102BE0008DF807000BE003984068042100F016FB05
:102BF0008DF8070003E000208DF80700FFE703E0F1
:102C000000208DF80700FFE79DF8070004B080BDA5
:102C100083B0029001918DF803209DF8030030B13C
:102C2000FFE7019A029948691043486105E0019A5B
:102C30000299486990434861FFE703B0704700007C
:102C400086B00590049100208DF80F000290059940
:102C5000086820F0020008600599086840F001004B
:102C60000860FFE70598406800F001010020012995
:102C7000019008D0FFE702984FF6FF71401A18BF85
:102C800001200190FFE70198C00720B1FFE70298FB
:102C900001300290E6E70598406800F00100012845
:102CA00004D0FFE700208DF80F00A4E0049880799D
:102CB000012806D1FFE70599086840F08000086008
:102CC00005E00599086820F080000860FFE7049897
:102CD000C079012806D1FFE70599086840F0400057
:102CE000086005E00599086820F040000860FFE7EB
:102CF0000498007A012806D1FFE70599086840F09A
:102D00002000086005E00599086820F020000860B0
:102D1000FFE70498407A012806D1FFE70599086883
:102D200040F01000086005E00599086820F01000E8
:102D30000860FFE70498807A012806D1FFE705992B
:102D4000086840F00800086005E00599086820F070
:102D500008000860FFE70498C07A012806D1FFE761
:102D60000599086840F00400086005E005990868C6
:102D700020F004000860FFE70499887891F803C008
:102D80000B794A79800740EA0C6040EA034040EA48
:102D900002500988013908430599C86105990868F6
:102DA00020F00100086000200290FFE705984168CC
:102DB0000020C907009041B1FFE702984FF6FF716C
:102DC000401A18BF01200090FFE70098C00720B10B
:102DD000FFE7029801300290E8E705984068C007D5
:102DE00020B1FFE700208DF80F0003E001208DF8EF
:102DF0000F00FFE7FFE79DF80F0006B070470000E7
:102E000082B001908DF8031000208DF802009DF82B
:102E1000030038B9FFE70198C06800F003008DF89F
:102E2000020010E09DF80300012807D1FFE7019898
:102E3000006900F003008DF8020003E000208DF827
:102E40000200FFE7FFE79DF8020002B070470000B4
:102E500083B002908DF80710009202989DF8071039
:102E600000EB0110D0F8B00100F0040000990872E6
:102E70000098007A58B9FFE702989DF8071000EB18
:102E80000110D0F8B001400D009908600AE00298E6
:102E90009DF8071000EB0110D0F8B001C0080099B0
:102EA0004860FFE702989DF8071000EB0110D0F88A
:102EB000B00100F002000099487202989DF80710D6
:102EC00000EB0110D0F8B40100F00F0000998872F7
:102ED00002989DF8071000EB0110D0F8B401000A29
:102EE0000099C87402989DF8071000EB0110D0F803
:102EF000B8010099C87202989DF8071000EB011004
:102F0000D0F8B801000A0099087302989DF80710DC
:102F100000EB0110D0F8B801000C0099487302983A
:102F20009DF8071000EB0110D0F8B801000E0099D1
:102F3000887302989DF8071000EB0110D0F8BC01CF
:102F40000099C87302989DF8071000EB0110D0F8A3
:102F5000BC01000A0099087402989DF8071000EB64
:102F60000110D0F8BC01000C0099487402989DF83B
:102F7000071000EB0110D0F8BC01000E0099887416
:102F80009DF8070030B9FFE70299C86840F02000BB
:102F9000C86005E00299086940F020000861FFE779
:102FA00003B0704781B000900099002088710099AB
:102FB000C871009908720099487200998872009946
:102FC000C872009988700099C87000990320087130
:102FD00000990220487100990120088001B07047D3
:102FE00083B00290019100208DF803000298806860
:102FF0004001002804D5FFE700208DF8030019E008
:10300000029880680001002804D5FFE701208DF8B0
:1030100003000EE002988068C000002804D5FFE796
:1030200002208DF8030003E004208DF80300FFE781
:10303000FFE7FFE79DF8030004286ED0FFE7029842
:103040009DF8031000EB0111D1F8800100F00100A0
:10305000C1F880010198007A80B9FFE70198016802
:10306000407A40EA415202989DF8031000EB0111AA
:10307000D1F880011043C1F8800112E001994A683B
:10308000087A40EAC200497A40EA010202989DF8B3
:10309000031000EB0111D1F880011043C1F8800149
:1030A000FFE70199887A00F00F00887202989DF876
:1030B000031000EB0111D1F8840120F00F00C1F8DA
:1030C00084010198827A02989DF8031000EB0111A7
:1030D000D1F884011043C1F884010198D0F80B00A5
:1030E00002999DF8032001EB0211C1F888010198B3
:1030F000D0F80F0002999DF8032001EB0211C1F8EE
:103100008C0102989DF8031000EB0111D1F88001A9
:1031100040F00100C1F88001FFE79DF8030003B013
:103120007047000085B004908DF80F1000200290C9
:103130009DF80F000146019140B1FFE70198012879
:103140000CD0FFE70198022811D018E0049880689D
:103150000321C0F200410840029013E00498806807
:1031600040F20031C0F60001084002900AE00498E5
:1031700080680021C1F203010840029002E00020B3
:103180000290FFE70298009060B3FFE700980121EA
:10319000C0F20041884228D0FFE700980321C0F226
:1031A000004188422AD0FFE7009840F20011C0F6A3
:1031B000000188421CD0FFE7009840F20031C0F6C1
:1031C000000188421DD0FFE700980021C1F20101F3
:1031D000884210D0FFE700980021C1F20301884225
:1031E00012D014E00220029014E00020029011E0BE
:1031F000002002900EE0002002900BE001200290DF
:1032000008E00120029005E00120029002E0002089
:103210000290FFE79DF8080005B0704783B0029068
:10322000019100208DF8030002980199084204D012
:10323000FFE701208DF8030003E000208DF8030074
:10324000FFE79DF8030003B07047000070470000DF
:1032500080B584B002F0C2FD43F60000C4F2020063
:10326000016840F2D012C2F20002116043F6080178
:10327000C4F202010A6840F2CC13C2F200031A60E1
:1032800040F21802C2F20002126840F2D413C2F2F5
:1032900000031A600968C1F3810140F2EB12C2F227
:1032A000000211700168C1F3404140F2E012C2F225
:1032B000000211700068C0F3406040F2EA11C2F2EF
:1032C0000001087002F0CCFA039000200190FFE7A3
:1032D0000198C0087C2805D8FFE7FFE70198013076
:1032E0000190F5E702F0BCFA029002980399411AA6
:1032F00040F2DC10C2F2000001600068002818BF34
:10330000012040F2D811C2F20001087004B080BD63
:1033100080B58CB00B9001210491084601F094FF18
:103320000499102001F0E4FF0020C4F20200019093
:1033300009210722009200F073FC009A01980A21EB
:1033400000F06EFC019804994FF4C06209920222C9
:103350008DF82820002302938DF82A308DF829203B
:103360008DF82B1009A900F0DFFB02980B9905914D
:10337000ADF81800ADF81A00ADF81C00ADF820004B
:103380000C20ADF81E0041F20000C4F201000390D1
:1033900005A903F00DF80398049902F0D1FF0CB0D1
:1033A00080BD000080B502F0AFF980BD80B502F0AD
:1033B000B1F980BD80B502F0B3F980BD80B502F0EF
:1033C000B5F980BD81B00090009843F61441C4F275
:1033D0000101086001B0704782B0019000208DF8B3
:1033E000030043F61440C4F201000068019908424A
:1033F00004D0FFE701208DF8030003E000208DF8E2
:103400000300FFE79DF8030002B0704782B001900F
:103410000020009043F60040C4F2010000900198A3
:103420008079002859D0FFE70198026843F60041EF
:10343000C4F201010868904308600198026843F6ED
:103440000441C4F2010108689043086001980179C1
:103450000098084400900198026800990868104399
:1034600008600198026843F60841C4F20101086847
:10347000904308600198026843F60C41C4F20101D0
:1034800008689043086001984079102813D1FFE73D
:103490000198026843F60841C4F20101086810432C
:1034A00008600198026843F60C41C4F20101086803
:1034B0001043086010E043F60040C4F201000090A1
:1034C0000198417900980844009001980268009999
:1034D000086810430860FFE70BE001980179009845
:1034E00008440090019802680099086890430860B9
:1034F000FFE702B07047000080B582B08DF807008A
:1035000003208DF80100F3208DF80200AB208DF828
:1035100003009DF807008DF8040000208DF80500D9
:103520006B208DF806000DF10100062100F0EEF889
:103530009DF8070040F2F841C2F2000108709DF8C2
:10354000070040F28511C2F20001087002B080BD90
:1035500080B582B032200190FEF72AFE0120FFF7ED
:10356000CBFF0198FEF724FE00F0BCF80198FEF7AF
:103570001FFE40F2B411C2F200010020086040F2C8
:10358000AC11C2F20001087040F2AE11C2F20001AB
:10359000088002B080BD000080B582B00190019823
:1035A0004FF4FA7100F002F802B080BD80B584B02B
:1035B0000390ADF80A1040F2F840C2F20000007823
:1035C00038B9FFE70120FFF797FF0220FEF7F0FD73
:1035D000FFE70398FEF7DAFD0390039840F2B41179
:1035E000C2F200010968884201D1FFE73AE003997D
:1035F00040F2B410C2F20000019002680020914233
:1036000038BF01208DF809009DF809000399BDF825
:103610000A30012200F028F80199039808609DF80B
:1036200009104FF0FF30002908BF012040F2AC1113
:10363000C2F2000108709DF809104FF61840CFF64D
:10364000FF70002908BF4FF47A7040F2AE11C2F249
:103650000001088040F2B811C2F200010868013090
:103660000860FFE704B080BD80B588B08DF81F000A
:1036700006918DF81720ADF8143003208DF807005F
:10368000FD208DF808009DF81F008DF809009DF8B9
:1036900015008DF80A009DF814008DF80B003220FB
:1036A0008DF80C009DF81B008DF80D00BDF81A0078
:1036B0008DF80E000698000A8DF80F0006988DF818
:1036C00010009DF817008DF8110000208DF81200F1
:1036D0006B208DF813000DF107000D2100F016F896
:1036E00008B080BD80B582B003208DF804000A20A8
:1036F0008DF805006D208DF806006B208DF8070011
:1037000001A8042100F002F802B080BD80B588B0A5
:1037100006908DF8171000208DF816008DF8150012
:103720009DF81700012804D8FFE700208DF81F003E
:10373000B7E00698407840F28611C2F200010870A6
:10374000FFE79DF816009DF817100239C9B28842AC
:1037500080F2A380FFE7069840788DF80B000020E8
:103760008DF80C008DF80D008DF80E008DF80F000F
:103770008DF810008DF811008DF812000698017870
:103780009DF8150040EA012001909DF817009DF872
:103790001610401A02388DF814009DF814000628FF
:1037A00004D8FFE79DF81400009002E00720009085
:1037B000FFE700988DF8130006999DF8160008445D
:1037C00080788DF80C009DF81300022808D3FFE7DD
:1037D00006999DF816000844C0788DF80D00FFE7A3
:1037E0009DF81300032808D3FFE706999DF81600FB
:1037F000084400798DF80E00FFE79DF813000428B7
:1038000008D3FFE706999DF81600084440798DF823
:103810000F00FFE79DF81300052808D3FFE706997E
:103820009DF81600084480798DF81000FFE79DF898
:103830001300062808D3FFE706999DF816000844F0
:10384000C0798DF81100FFE79DF81300072808D311
:10385000FFE706999DF816000844007A8DF81200DB
:10386000FFE701989DF813100131CAB20DF10B0169
:1038700000F01CF820B9FFE700208DF81F0010E0D1
:103880009DF816009DF8131008448DF816009DF859
:10389000150001308DF8150053E701208DF81F0049
:1038A000FFE79DF81F0008B080BD000080B594B010
:1038B000129011918DF8432000200B9012990C91D9
:1038C00004218DF834108DF835009DF843008DF8F3
:1038D00036009DF8430020B1FFE71198007808906A
:1038E00002E000200890FFE708988DF837009DF867
:1038F0004300022804D3FFE711984078079002E0C4
:1039000000200790FFE707988DF838009DF84300E6
:10391000032804D3FFE711988078069002E0002086
:103920000690FFE706988DF839009DF843000428BB
:1039300004D3FFE71198C078059002E000200590BD
:10394000FFE705988DF83A009DF84300052804D359
:10395000FFE711980079049002E000200490FFE74F
:1039600004988DF83B009DF84300062804D3FFE738
:1039700011984079039002E000200390FFE703983C
:103980008DF83C009DF84300072804D3FFE7119809
:103990008079029002E000200290FFE702988DF803
:1039A0003D009DF84300082804D3FFE71198C07933
:1039B000019002E000200190FFE701988DF83E00A1
:1039C00040F29011C2F200010868013008601298BC
:1039D00040F28811C2F2000108609DF8430040F2F5
:1039E0008C11C2F20001087046F20040C4F20000DF
:1039F0000BA9FFF7F5FA8DF82B009DF82B00032893
:103A000011D3FFE740F20C01C2F20001FF20087061
:103A100040F29811C2F200010868013008600020ED
:103A20008DF84F0058E001F01BFF0990FFE79DF86B
:103A30002B1046F20040C4F20000FFF773FB8DF834
:103A40002A009DF82A00012812D1FFE79DF82A00DC
:103A500040F20C01C2F20001087040F29C11C2F267
:103A6000000108680130086001208DF84F0033E044
:103A70009DF82A0090B9FFE79DF82A0040F20C015A
:103A8000C2F20001087040F29411C2F2000108680D
:103A90000130086000208DF84F001DE0FFE701F0C5
:103AA000DFFE0999401A48F2A061C0F20101884284
:103AB000BDD3FFE79DF82A0040F20C01C2F20001DD
:103AC000087040F2A011C2F20001086801300860DD
:103AD00000208DF84F00FFE79DF84F0014B080BD27
:103AE00080B540F2F840C2F20000007820B1FFE754
:103AF0000020FFF701FDFFE740F2AC11C2F2000128
:103B00000020087040F2AE11C2F20001088040F2BD
:103B1000BC11C2F20001087040F2B011C2F2000103
:103B200008680130086080BD85B0049003910020D2
:103B30000290019000900290FFE702980F286CD845
:103B4000FFE70299012088400190039800680199DD
:103B50000840009000980199884259D1FFE70298E7
:103B60004100032000FA01F20499086890430860BC
:103B7000039800790299490000FA01F20499086853
:103B80001043086003980079012805D0FFE70398E7
:103B90000079022827D1FFE702984100032000FAAC
:103BA00001F20499886890438860039840790299EB
:103BB000490000FA01F20499886810438860BDF852
:103BC0000810012000FA01F2049948689043486007
:103BD00003988079BDF80810884082B2049948683B
:103BE00010434860FFE7BDF808004100032000FAD9
:103BF00001F20499C8689043C8600398C07902999B
:103C0000490000FA01F20499C8681043C860FFE750
:103C1000FFE70298013002908FE705B0704700007F
:103C200084B00390ADF80A108DF8092000200190AF
:103C300000909DF80900BDF80A1001F00701890005
:103C400088400190BDF80A3003F0070081000F2082
:103C500000FA01F203986FF0030101EA53010144F5
:103C6000086A904308620398BDF80A1047F6FC7290
:103C700002EA51010844006A019908430090009843
:103C80000399BDF80A3002EA53021144086204B0F5
:103C90007047000082B00190ADF8021000208DF84E
:103CA000010001980069BDF80210084204D0FFE746
:103CB00001208DF8010003E000208DF80100FFE7EE
:103CC0009DF8010002B0704782B00190ADF802107B
:103CD000BDF802000199488302B0704782B001909C
:103CE000ADF80210BDF802000199088302B07047D8
:103CF000FFE7FEE780B584B0039001F0B1FD0290CC
:103D000003984FF47A7148430190FFE701F0A8FD52
:103D10000299401A0199884201D2FFE7F6E704B000
:103D200080BD000040F2F810C2F200000068704749
:103D300080B582B0019040F2F810C2F20000006835
:103D40000199401A00F0E8F902B080BD80B582B058
:103D50008DF807000020009000F0A8FA00F0E8FAC3
:103D60009DF80700B0FA80F0400900F0BBFA00F0BF
:103D70000BF8012000F09AFA00F006F8009800F025
:103D800095FA02B080BD000081B000200090FFE7EE
:103D900000983B2806D8FFE700BFFFE700980130F6
:103DA0000090F5E701B0704780B586B00220009022
:103DB0000121039101F048FA009903984FF4406201
:103DC00004928DF814008DF816008DF815108DF8FA
:103DD000170040F20040C4F20200019004A90291D1
:103DE000FFF7A2FE009B01980299039A4FF4805CB2
:103DF000CDF810C04FF0000C8DF814C08DF81620CF
:103E00008DF815308DF81720FFF78EFE039800F01F
:103E10004DFA039800F066FA06B080BD80B582B016
:103E20008DF80700002000908DF8050000F076FA6C
:103E300000988DF80600FFE79DF80600072821D8B6
:103E4000FFE7002000F032FAFFF79EFF012000F0AC
:103E50002DFA9DF8050040008DF8050000F018FAD5
:103E600038B1FFE79DF8050040F001008DF805002E
:103E7000FFE7FFF789FFFFE79DF8060001308DF8A7
:103E80000600D9E7002000F011FA9DF80700FFF7BF
:103E90005DFF9DF8050002B080BD000080B582B0D6
:103EA00000F046FA0120009000F01CFA009800F0A3
:103EB000FDF9FFF769FF0020019000F013FAFFF70A
:103EC00063FF019800F0F2F902B080BD80B582B0C6
:103ED00000F02EFA0020009000F0E8F9009800F0C1
:103EE00001FAFFF751FF0120019000F0DFF9FFF721
:103EF0004BFF019800F0F6F9FFF746FF02B080BDD6
:103F000080B584B00020029000F008FA01200190F2
:103F100000F0E8F9FFF738FF019800F0C7F9FFF764
:103F200033FFFFE700F0B4F990B1FFE702980130EA
:103F30000290029851280AD3FFE70020009000F079
:103F4000B5F9FFF7C3FF00988DF80F0007E0E9E728
:103F5000002000F0ABF901208DF80F00FFE79DF87D
:103F60000F0004B080BD000080B582B08DF807005E
:103F700000F0DEF90020009000F098F900988DF82C
:103F80000600FFE79DF8060007281DD8FFE79DF80B
:103F90000700C00900F0A6F99DF8070040008DF861
:103FA0000700FFF7F1FE012000F080F9FFF7ECFEBB
:103FB000002000F07BF9FFF7E7FEFFE79DF8060021
:103FC00001308DF80600DDE7FFF79AFF02B080BDF3
:103FD00080B586B000200390049040F2F611C2F242
:103FE0000001087040F2F511C2F20001087040F2C1
:103FF000F411C2F20001087040F2EC11C2F20001AB
:10400000086040F2F211C2F20001088040F2F011A3
:10401000C2F20001088040F2F811C2F2000108600B
:10402000FFF7C2FE0A20FFF765FE039800F08EF945
:10403000039800F0B1F8EA2807D0FFE740F2F41146
:10404000C2F200010120087063E006200090802188
:1040500000F0E8F96420FFF74DFE0020029000F028
:1040600075F900980121019100F0DCF9029907200F
:1040700000F0D8F90299032000F0D4F90A20FFF7E4
:1040800039FE202000F062F90298092100F0CAF9F7
:104090000198132100F0C6F9029800F057F9142096
:1040A000FFF728FE02980590FFE7059863280ED8D1
:1040B000FFE700F04DF801460498084404900A20F8
:1040C000FFF718FEFFE7059801300590EDE704982B
:1040D00048F21F51C5F2EB1150FB01F1480900EB0A
:1040E000D17040F2F011C2F20001088040F2F611E6
:1040F000C2F200010120087040F2F511C2F2000185
:10410000087001F0ADFB40F2FC41C2F20001086012
:10411000FFE706B080BD000081B00090FFE7009887
:10412000B0F5E16F05DDFFE70098A0F56160009054
:10413000F5E7FFE7009810F5E16F05DAFFE7009873
:1041400000F561600090F5E7009801B0704700004D
:1041500080B582B033206946062200F02FF870B98E
:10416000FFE740F2F411C2F200010520087040F2AE
:10417000F210C2F200000088ADF8060008E09DF8D9
:1041800004109DF8050040EA0120ADF80600FFE7A5
:10419000BDF9060002B080BD80B582B08DF8070081
:1041A00000208DF806009DF807000DF106010122A0
:1041B00000F004F89DF8060002B080BD80B584B020
:1041C0008DF80E0002918DF8072001208DF8050072
:1041D000029820B1FFE79DF8070020B9FFE7002013
:1041E0008DF80F0050E0FFF759FED020FFF7BCFE1E
:1041F00001469DF8050008408DF805009DF80E0069
:10420000FFF7B2FE01469DF8050008408DF8050055
:10421000FFF744FED120FFF7A7FE01469DF80500F9
:1042200008408DF805009DF8050030B9FFE7FFF75D
:104230004DFE00208DF80F0026E000208DF80600CE
:10424000FFE79DF806009DF80710884216DAFFE7A1
:104250009DF80600411C9DF807200020914238BFC0
:104260000120FFF7DBFD02999DF806208854FFE747
:104270009DF8060001308DF80600E2E7FFF726FE04
:1042800001208DF80F00FFE79DF80F0004B080BDFE
:1042900080B540F20040C4F202004FF40061FFF725
:1042A000F9FC002818BF012080BD000080B582B055
:1042B0008DF807009DF8070048B1FFE740F2004085
:1042C000C4F202004FF48061FFF708FD08E040F2FD
:1042D0000040C4F202004FF48061FFF7F5FCFFE7F5
:1042E00002B080BD80B582B08DF807009DF8070050
:1042F00048B1FFE740F20040C4F202004FF4006111
:10430000FFF7ECFC08E040F20040C4F202004FF47A
:104310000061FFF7D9FCFFE702B080BD40F2004129
:10432000C4F20201086820F44000086070470000F1
:1043300040F20041C4F20201086820F44000086025
:10434000086840F4800008607047000080B582B0C3
:104350008DF807009DF807107F2000F063F802B089
:1043600080BD000080B588B040F2F510C2F20000B8
:10437000007808B9FFE752E001F072FA0790079859
:1043800040F2FC41C2F200010968401A069006980A
:1043900042F20F71884201D8FFE740E0079840F2EF
:1043A000FC41C2F200010860FFF7D2FE014640F274
:1043B000F210C2F200000180B0F9000040F2F011EA
:1043C000C2F20001B1F90010401A05900598C1171A
:1043D000069AA0FB020301FB02316422A0FB020348
:1043E00001FB023148F2C012C2F20A720023FBF74D
:1043F000AFFF0391029040F2F810C2F2000001906A
:10440000006802990844FFF787FE0199086040F2AE
:10441000EC11C2F20001086801300860FFE708B043
:1044200080BD000080B582B08DF807008DF80610C1
:1044300001208DF80500FFF731FDD020FFF794FD36
:1044400001469DF8050008408DF805009DF807001D
:10445000FFF78AFD01469DF8050008408DF805002C
:104460009DF80600FFF780FD01469DF80500084015
:104470008DF80500FFF72AFD9DF8050002B080BD0C
:1044800082B001900198B0F1FF3F04DCFFE7019892
:104490004042009002E001980090FFE7009802B0CF
:1044A0007047000080B598B015200121079100F0F9
:1044B000CBFE07994FF4807000F01AFF10200B908C
:1044C000169003208DF85C00002004908DF85F00AA
:1044D0000020C4F20200089016A90291FFF724FB05
:1044E0000299049B079A08984FF0200CCDF824C03D
:1044F000CDF858C08DF85C208DF85E300223019312
:104500008DF85D308DF85F20FFF70EFB019A029960
:10451000049B0798DDF82CC0CDF858C08DF85C00DE
:104520008DF85E308DF85D208DF85F0040F600005C
:10453000C4F202000A90FFF7F7FA0299049A07986A
:1045400016908DF85C208DF85F0041F20000C4F2F7
:104550000200FFF7E9FA12A80390FDF799FC03980F
:104560004FF480311391FDF771FC0CA80590FDF715
:10457000D7FD049A059907980C928DF834208DF890
:1045800035200E9210928DF8440042F20000C4F2E1
:1045900001000690FDF7ACFC06980799FDF740FC7A
:1045A00008980999FFF790FB0A980B99FFF78CFB85
:1045B00018B080BD80B588B00020C4F2020003901E
:1045C00020210491FFF780FB40F60000C4F20200B6
:1045D000059010210691FFF777FB00F0E5FA0598AA
:1045E0000699FFF77BFB00F0DFFA03980499FFF7C9
:1045F0006BFB00F0D9FA03980499FFF76FFB00F00A
:10460000D3FA05980699FFF75FFB00F0CDFA00207A
:104610000790FFE707987F2821D8FFE70020C4F222
:104620000200029020210191FFF74EFB00F0BCFA3E
:1046300000F032FA0199024602981209DDF81CC016
:1046400040F2F423C2F2000323F81C20FFF746FBDC
:1046500000F0AAFAFFE7079801300790DAE708B000
:1046600080BD000084B002900191009202980099F0
:10467000884203DDFFE7009803900AE00298019961
:10468000884203DAFFE70198039002E00298039062
:10469000FFE7039804B0704780B5FFF703FF80BDC4
:1046A00040F20420C2F200000078704784B040F26B
:1046B000F420C2F200004189ADF80E104089ADF837
:1046C0000C000520ADF80A007A21ADF80810002191
:1046D0008DF805108DF80410ADF80600FFE7BDF861
:1046E00006007A2837D8FFE7BDF8061040F2F4201C
:1046F000C2F2000030F81100BDF80E1088420BDD48
:10470000FFE7BDF8061040F2F420C2F2000030F8D6
:104710001100ADF80E00FFE7BDF8061040F2F420DE
:10472000C2F2000030F81100BDF80C1088420BDA1C
:10473000FFE7BDF8061040F2F420C2F2000030F8A6
:104740001100ADF80C00FFE7FFE7BDF806000130EF
:10475000ADF80600C3E7BDF80E00BDF80C10084424
:10476000400840F21C21C2F2000108800520ADF88B
:104770000600FFE7BDF80600742875D8FFE7BDF80E
:10478000061040F2F420C2F2000030F8110040F2AE
:104790001C21C2F20001098888425EDDFFE7BDF8F6
:1047A000061040F2F420C2F2000000EB4100408805
:1047B00040F21C21C2F20001098888424DDDFFE76A
:1047C000BDF8061040F2F420C2F2000000EB4100F8
:1047D000808840F21C21C2F20001098888423CDD39
:1047E000FFE7BDF8061040F2F420C2F2000000EB33
:1047F0004100C08840F21C21C2F2000109888842B1
:104800002BDAFFE7BDF8061040F2F420C2F20000F8
:1048100000EB4100008940F21C21C2F2000109882E
:1048200088421ADAFFE7BDF8061040F2F420C2F21F
:10483000000000EB4100408940F21C21C2F200015F
:104840000988884209DAFFE7BDF806000230ADF8B2
:104850000A0001208DF8050006E0FFE7BDF806001C
:104860000130ADF8060085E77520ADF80600FFE7DA
:10487000BDF80600062875D3FFE7BDF8061040F224
:10488000F420C2F2000030F8110040F21C21C2F204
:104890000001098888425EDAFFE7BDF8061040F2A1
:1048A000F420C2F2000000EB4100408840F21C21DD
:1048B000C2F20001098888424DDAFFE7BDF8061010
:1048C00040F2F420C2F2000000EB4100808840F288
:1048D0001C21C2F20001098888423CDAFFE7BDF8DA
:1048E000061040F2F420C2F2000000EB4100C08844
:1048F00040F21C21C2F20001098888422BDDFFE74B
:10490000BDF8061040F2F420C2F2000000EB4100B6
:10491000008940F21C21C2F20001098888421ADD98
:10492000FFE7BDF8061040F2F420C2F2000000EBF1
:104930004100408940F21C21C2F2000109888842EE
:1049400009DDFFE7BDF806000230ADF808000120E0
:104950008DF8040006E0FFE7BDF806000138ADF869
:10496000060085E79DF8050058B1FFE79DF80400B3
:1049700038B1FFE7BDF80800BDF80A1088422CDC0A
:10498000FFE740F21601C2F200010120087040F278
:10499000FC11C2F200010020087040F22821C2F28E
:1049A0000001088040F21401C2F200013F2008809B
:1049B00040F20850C2F20000B0F900104FF6184063
:1049C000CFF6FF70B1F1FF3FC8BF4FF47A7040F2ED
:1049D0001421C2F2000108805BE0BDF80800BDF8B8
:1049E0000A10401A40F22821C2F200010880BDF8E6
:1049F0000800BDF80A100844410840F21400C2F251
:104A00000000018000883F384FF47A71414342F240
:104A10008300C8F2082050FB0111480900EBD17057
:104A2000ADF80200BDF90200B0F57A7F05DDFFE7C1
:104A30004FF47A70ADF802000BE0BDF9020010F5FA
:104A40007A7F05DAFFE74FF61840ADF80200FFE77E
:104A5000FFE7BDF8020040F21421C2F20001088015
:104A600040F22821C2F200010A880020042A0246EE
:104A700038BF012240F21603C2F200031A700988FF
:104A80001E2988BF012040F2FC11C2F2000108700B
:104A9000FFE704B07047000080B582B042F200002A
:104AA000C4F201000190042101220723FDF770FAEE
:104AB0000198FDF72BFBFFE742F20000C4F2010072
:104AC0000221FDF7FBF908B9FFE7F5E742F2000024
:104AD000C4F20100FDF7EAF902B080BD80B582B0F2
:104AE0008DF807009DF80710002918BF012140F23A
:104AF0000420C2F20000017040F20C22C2F2000257
:104B0000116801311160007850B3FFE740F21221C3
:104B1000C2F2000100200090087040F21E21C2F293
:104B20000001087040F22421C2F20001087040F236
:104B30002621C2F20001088040F22A21C2F20001BF
:104B40000880FFF7EFF80146009840F24052C2F2A9
:104B50000002116040F20851C2F200010880FFE734
:104B600040F20420C2F200000078D8B9FFE740F21A
:104B70001221C2F200010020087040F21E21C2F290
:104B80000001087040F21021C2F20001088040F2DA
:104B90001821C2F20001088040F22A21C2F200016D
:104BA0000880FFE702B080BD81B000200090FFE7E1
:104BB00000981D2806D8FFE700BFFFE700980130E6
:104BC0000090F5E701B0704780B582B0019040F2E7
:104BD0002420C2F200000078022807D8FFE740F244
:104BE000F510C2F20000007808B9FFE747E040F294
:104BF0001221C2F200010120087040F21A20C2F214
:104C000000000078012810D1FFE740F22420C2F212
:104C10000000017847F24B50C0F60000405C40F2C3
:104C20001E21C2F2000108700FE040F22420C2F2FF
:104C30000000017847F24850C0F60000405C40F2A6
:104C40001E21C2F200010870FFE7FFF76BF840F287
:104C50003851C2F20001086040F22621C2F2000180
:104C600000200880019840F23451C2F2000108602F
:104C7000019840F20C51C2F200010860FFE702B057
:104C800080BD000080B582B040F21221C2F2000166
:104C900000200190087040F21E21C2F2000108704D
:104CA00040F22422C2F2000211780131117040F268
:104CB0002022C2F2000211680131116040F210217D
:104CC000C2F20001088040F21821C2F200010880FF
:104CD00040F22A21C2F200010880FFF723F840F2D7
:104CE0004051C2F20001086000F0BAFD014601988F
:104CF00040F20C52C2F20002116040F20851C2F2BE
:104D00000001088002B080BD80B58CB0ADF82E00E7
:104D100000F0A6FD0390039840F20051C2F200019A
:104D20000968401A42F210718842C0F09A80FFE789
:104D3000039840F20051C2F200010860FFF73AFC0C
:104D400040F21620C2F200000078A8B3FFE700206E
:104D50000290FFE702987F2814D8FFE7029AC2F179
:104D60007F0140F2F420C2F2000030F8110040F25E
:104D7000F431C2F2000121F81200FFE7029801307D
:104D80000290E7E700200290FFE702987F2812D800
:104D9000FFE7029A40F2F430C2F2000030F812004D
:104DA00040F2F421C2F2000121F81200FFE702985C
:104DB00001300290E9E7FFE7FFF778FC40F20821B5
:104DC000C2F2000108680130086040F2FC10C2F233
:104DD00000000078E0B1FFE7039840F20451C2F20E
:104DE00000010968401A40F64051C0F203018842B0
:104DF0000ED3FFE7039840F20451C2F200010860AD
:104E000040F20021C2F20001086801300860FFE7AB
:104E100040F21220C2F20000007808BBFFE740F227
:104E2000FC10C2F200000078D0B1FFE740F224206D
:104E3000C2F200000078022812D8FFE7039840F27F
:104E40000C51C2F200010968401A43F20051C0F24D
:104E50000C01884204D3FFE70398FFF7B5FEFFE794
:104E6000FFE740F20420C2F20000007820B1FFE723
:104E7000BDF82E0088B9FFE740F21021C2F2000110
:104E80000020088040F21821C2F20001088040F2A0
:104E90002A21C2F2000108805CE140F21220C2F235
:104EA0000000007801284ED1FFE740F23850C2F2EE
:104EB00000000068FEF73CFF01900198FFF7E0FA60
:104EC0000090019840F22621C2F20001088000986B
:104ED00040F25131884215DCFFE7039840F234512B
:104EE000C2F200010968401A42F29F51C0F2260145
:104EF000884207D8FFE740F2F510C2F200000078C0
:104F000018B9FFE7FFF7BEFE24E140F21E20C2F20F
:104F1000000090F9002041F658314A4340F2102336
:104F2000C2F200031A8090F900004843404240F268
:104F30001821C2F20001088040F22A21C2F20001C9
:104F40000020088006E1BDF82E0042F6E0614843EB
:104F500044F6D351C1F26201A0FB01010020A0EB95
:104F600091100A9040F21620C2F20000007820B1A1
:104F7000FFE70A9840420A90FFE740F21600C2F2AB
:104F80000000007888B1FFE740F20850C2F200004C
:104F9000B0F900104EF69000CFF6FF70B1F1FF3F70
:104FA000C8BF41F27070099061E040F21420C2F273
:104FB0000000B0F9001040F20852C2F20002B2F94B
:104FC0000020891A0891B0F9000000EB8000400031
:104FD00009900899099800EB8100099040F2F510BA
:104FE000C2F20000007898B3FFE740F2FC10C2F272
:104FF0000000007860BBFFE740F21420C2F200001E
:10500000B0F90000FFF73CFAB0F5967F20DCFFE72F
:1050100040F24050C2F200000068FEF789FE0590A1
:105020000598C000049004984FF24841CFF6FF71F4
:1050300040F6B832FFF716FB04900499099808442B
:105040000990049840F22A21C2F2000108800DE084
:10505000FEF768FE40F24051C2F20001086040F2E3
:105060002A21C2F2000100200880FFE7FFE709982B
:1050700042F22931884204DBFFE742F228300990EE
:105080000EE009984DF6D741CFF6FF71884206DC55
:10509000FFE74DF6D840CFF6FF700990FFE7FFE736
:1050A00040F21620C2F20000007848B1FFE70A98EB
:1050B0000999401A07900A9809990844069008E04F
:1050C0000A980999084407900A980999401A069085
:1050D000FFE70798B0F57A5F04DDFFE74FF47A50F9
:1050E00007900BE0079810F57A5F06DAFFE74CF2BD
:1050F0008010CFF6FF700790FFE7FFE70698B0F546
:105100007A5F04DDFFE74FF47A5006900BE00698D3
:1051100010F57A5F06DAFFE74CF28010CFF6FF70E9
:105120000690FFE7FFE7079840F21021C2F2000166
:105130000880069840F21821C2F20001088040F26F
:105140001420C2F20000008840F20851C2F20001AF
:105150000880FFE70CB080BDFFE7FEE77047000066
:1051600082B0019000208DF803008DF802000F201E
:105170008DF801000198C078002845D0FFE74EF671
:105180000C50CEF200000068C043C0F302208DF83E
:1051900003009DF80300C0F104008DF802009DF8A3
:1051A00001009DF80310C8408DF801000198407877
:1051B0009DF8021088408DF80300019880789DF8D2
:1051C000011001409DF8030008438DF803009DF88D
:1051D000030000018DF803009DF803000199097890
:1051E0004EF20042CEF2000288540198027802F09A
:1051F0001F01012088401C2101EAD2014EF2001259
:10520000CEF2000288500EE00198027802F01F01F1
:10521000012088401C2101EAD2014EF28012CEF218
:1052200000028850FFE702B07047000081B0009094
:1052300000980021C0F2FA5108434EF60C51CEF20C
:105240000001086001B0704782B001908DF8031032
:105250009DF8030048B1FFE7019A43F63001C4F21C
:10526000020108681043086008E0019A43F6300123
:10527000C4F20201086890430860FFE702B070477B
:1052800082B001908DF803109DF8030048B1FFE74C
:10529000019A43F64001C4F2020108681043086015
:1052A00008E0019A43F64001C4F202010868904305
:1052B0000860FFE702B0704782B001908DF80310DC
:1052C0009DF8030048B1FFE7019A43F62001C4F2BC
:1052D000020108681043086008E0019A43F62001C3
:1052E000C4F20201086890430860FFE702B070470B
:1052F00082B001908DF803109DF8030048B1FFE7DC
:10530000019A43F64401C4F20201086810430860A0
:1053100008E0019A43F64401C4F202010868904390
:105320000860FFE702B0704788B00790002106913F
:1053300005910491022003900291019043F6080028
:10534000C4F20200006800F00C000690069800907D
:1053500040B1FFE7009804280BD0FFE70098082829
:105360000ED050E0079942F20040C0F2F40008600D
:1053700050E0079941F20020C0F27A00086049E04D
:1053800043F60400C4F202000168C1F380510291A7
:10539000006800F03F000190029888B1FFE7019992
:1053A00041F20020C0F27A00B0FBF1F043F60401B4
:1053B000C4F202010968C1F388114843049010E067
:1053C000019942F20040C0F2F400B0FBF1F043F664
:1053D0000401C4F202010968C1F388114843049032
:1053E000FFE743F60400C4F20200006800F4403115
:1053F000022000EBD130039004980399B0FBF1F048
:105400000799086006E0079942F20040C0F2F400F4
:105410000860FFE743F60801C4F20201086800F0E3
:10542000F0000690069800090690069A47F2385058
:10543000C0F60000825C0592079B1A68DDF814C074
:1054400022FA0CF25A600A6802F4E0520692069AB6
:10545000920A0692069A825C0592079B5A68DDF8CA
:1054600014C022FA0CF29A60096801F460410691B6
:105470000699490B06910699405C05900799486882
:10548000059AD040C86008B07047000083B0ADF8FE
:105490000800ADF80610BDF80800B0F5487F07D346
:1054A000FFE7BDF8080040F69901884204D3FFE702
:1054B00001208DF80B0017E0BDF80800A0F2DC50C9
:1054C00000900098B0F1FF3F04DCFFE700984042F5
:1054D0000090FFE70099BDF8062000209142D8BF58
:1054E00001208DF80B00FFE79DF80B0003B070471B
:1054F00082B0ADF80400BDF80400B0F5487F07D3D2
:10550000FFE7BDF8040040F69901884204D3FFE7A5
:105510000020ADF8060036E0BDF80400A0F2DC5033
:105520000090009810F1270F08DBFFE7009827286C
:1055300004DCFFE70020ADF8060024E00098B0F599
:10554000FA7F04DDFFE74FF4FA7000900BE000985B
:1055500010F5FA7F06DAFFE74FF60C60CFF6FF7022
:105560000090FFE7FFE700984FF47A71484344F654
:10557000D351C1F2620150FB01F1480900EBD17037
:10558000ADF80600FFE7BDF9060002B07047000065
:1055900081B0ADF80000BDF8000080087C2805D877
:1055A000FFE74FF4FA70ADF8020010E0BDF800001C
:1055B00040F6C511884205D3FFE740F6C410ADF8A8
:1055C000020004E0BDF80000ADF80200FFE7BDF8FE
:1055D000020001B07047000082B0ADF80400BDF8D1
:1055E0000400B0F5487F07D3FFE7BDF8040040F69C
:1055F0009901884204D3FFE70020ADF8060027E0B8
:10560000BDF80400B0F57A7F04D8FFE70020ADF8BC
:1056100006001DE0BDF80400B0F5FA6F05D3FFE702
:105620004FF47A70ADF8060012E0BDF80400A0F562
:105630007A70009000984FF47A71484344F6D35141
:10564000C1F26201A0FB01108009ADF80600FFE77E
:10565000BDF8060002B0704781B0ADF80000BDF89B
:105660000000B0F5487F07D3FFE7BDF8000040F623
:105670009901884204D3FFE701208DF8030019E067
:10568000BDF8000040F21451884204D8FFE7002022
:105690008DF803000EE0BDF8000040F2A4618842DE
:1056A00004D3FFE702208DF8030003E001208DF80A
:1056B0000300FFE79DF8030001B0704782B0ADF82A
:1056C00004008DF80310BDF80400B0F5487F07D33F
:1056D000FFE7BDF8040040F69901884205D3FFE7D3
:1056E0009DF803008DF807000AE0BDF8041040F2B1
:1056F000DB520020914288BF01208DF80700FFE7B0
:105700009DF8070002B0704780B5052000F0CEF884
:1057100080BD000080B5002000F0C8F880BD00000A
:1057200080B5012000F0C2F880BD000080B50220E5
:1057300000F0BCF8032000F0B9F8042000F0B6F83F
:1057400080BD000080B58AB0052001210291FFF7DD
:105750007BFD02994FF48040FFF7CAFD4FF4E670DD
:105760000890002104918DF8241002208DF8250066
:105770008DF826108DF827000020C4F2020008A939
:105780000391FEF7D1F902980399089040F60000C2
:10579000C4F20200FEF7C8F904988DF81700FFE77D
:1057A0009DF8170005282BDCFFE79DF8170000EB9C
:1057B000400147F25050C0F60000019000EB81011B
:1057C0008879C97900F0EAF901989DF8171001EB82
:1057D000410100EB81008068069000208DF81C00DC
:1057E00010208DF81D0001208DF81E0006A8FDF781
:1057F0000DFEFFE79DF8170001308DF81700CFE789
:105800000AB080BD84B043F60800C4F2020000680C
:1058100080B2400B02900298032803D8FFE70120D2
:10582000019005E00298C11E012088400190FFE729
:1058300040F21800C2F2000000680199B0FBF1F0DC
:1058400000900198012803D1FFE70098039003E03E
:10585000009840000390FFE7039804B070470000F1
:1058600082B040F23050C2F200000068019044F271
:105870002440C4F201000068ADF8020044F2104078
:10588000C4F201000088C00750B1FFE7BDF9020073
:10589000002805D4FFE7019800F580300190FFE76C
:1058A0000198BDF80210084402B0704780B584B07A
:1058B0008DF80F009DF80F0000EB400147F25050AB
:1058C000C0F6000000EB81008068FDF785FD08B997
:1058D000FFE78AE0FFF7C4FF02909DF80F2040F237
:1058E0004C21C2F2000151F82200013041F822009F
:1058F0009DF80F0000EB400247F25050C0F6000048
:1059000000EB820150F822008988FEF7C3F90146B6
:10591000002918BF01219DF80F2040F27C20C2F21F
:10592000000081549DF80F10405CA8B1FFE79DF87E
:105930000F2040F28421C2F2000151F82200013010
:1059400041F8220002989DF80F2040F21851C2F24F
:10595000000141F8220033E09DF80F2040F264215D
:10596000C2F2000151F82200013041F822000298F1
:105970009DF80F2040F21851C2F2000151F8221098
:10598000401A01900198B0F5487F18D3FFE70198BD
:1059900040F69801884212D8FFE701989DF80F2041
:1059A00040F22C21C2F2000121F812009DF80F20D4
:1059B00040F29C21C2F2000101208854FFE7FFE77A
:1059C0009DF80F0018B9FFE700F040F8FFE79DF8D9
:1059D0000F0000EB400147F25050C0F6000000EB12
:1059E00081008068FDF7EEFCFFE704B080BD000099
:1059F00080B500F085F8FFF7A5FE00F001F880BD46
:105A000080B582B002208DF805008DF806000120D7
:105A10008DF8070006208DF8040001A80090FFF71C
:105A20009FFB009808218DF80410FFF799FB009860
:105A300009218DF80410FFF793FB009817218DF8CA
:105A40000410FFF78DFB02B080BD000040F22C2057
:105A5000C2F20000008840F24221C2F20001088038
:105A600040F29C20C2F20000007840F24821C2F2CD
:105A70000001087040F27C20C2F20000007840F281
:105A80004021C2F20001087040F24C20C2F2000036
:105A9000006840F23821C2F20001086040F2842020
:105AA000C2F20000006840F24421C2F20001086026
:105AB00040F26420C2F20000006840F23C21C2F2D1
:105AC000000108607047000080B544F20040C4F255
:105AD0000100012100F09CFA80B1FFE744F2004090
