:020000040800F2
:10000000E00A00201103000809430008D93900085C
:1000100005430008D92500088D560008000000009F
:1000200000000000000000000000000023030008A2
:1000300051300008000000002703000829030008D1
:100040002B0300082B0300082B0300082B030008D8
:100050002B0300082B030008A93100082B0300081C
:10006000B1310008B93100082B0300082B03000848
:100070002B0300082B0300082B0300082B030008A8
:100080002B0300082B0300082B0300082B03000898
:10009000DD2500082B0300082B030008C1310008F0
:1000A0002B030008E15000082B0300082B03000875
:1000B0002B0300082B0300082B0300082B03000868
:1000C0002B0300082B0300082B0300082B03000858
:1000D0002B0300082B0300082B0300082B03000848
:1000E0002B0300082B0300082B0300082B03000838
:1000F0002B0300082B0300082B0300082B03000828
:100100002B0300082B0300082B0300082B03000817
:100110002B0300082B0300082B0300082B03000807
:100120002B0300082B0300082B0300082B030008F7
:100130002B0300082B0300082B0300082B030008E7
:100140002B0300082B0300082B0300082B030008D7
:100150002B0300082B0300082B0300082B030008C7
:100160002B0300082B0300082B0300082B030008B7
:100170002B0300082B0300082B0300082B030008A7
:100180002B0300082B03000800F002F800F0B0F881
:1001900014A696E8000CB244B344DA4501D100F04D
:1001A000A7F8BAE80F000FA696E83000A5EB040503
:1001B00004EB0607AAEB0704A7F101074FEA1515A0
:1001C0004FEA3414A4F10104AC4201D300F090F8DA
:1001D00013F0010F18BFFB1A43F0010300F001F800
:1001E000DBE718473065000050650000103A24BF77
:1001F00078C878C1FAD8520724BF30C830C144BF8C
:1002000004680C6070470000704700000023002461
:1002100000250026103A28BF78C1FBD8520728BF16
:1002200030C148BF0B6070476E2900F03F817029D4
:1002300000F07582662906F09881652906F095819F
:10024000672906F09281612906F0918103681B0AF3
:1002500028BF41F08001692900F0EC80642900F09A
:10026000E980752900F0E6806F2900F00382782983
:1002700000F04182E92900F09D81E42900F09A8193
:10028000F52900F09781EF2900F00082F82900F0AD
:1002900040820368DB0928BF41F08001632900F038
:1002A0005987732900F05E87E32900F06987F329F5
:1002B00000F06E87002070471FB506F049F99DE8F1
:1002C000030001F085FA01F059F804000020002134
:1002D00006F028F9401C60600020002106F00CF9AF
:1002E000E06000F05DFF1FBD10B500F0C2FF10BD63
:1002F00001F016F81146FFF7DFFF05F031FC01F0C1
:10030000DDF903B4FFF7F0FF03BC01F01FFC0000B0
:100310000948804709480047FEE7FEE7FEE7FEE799
:10032000FEE7FEE7FEE7FEE7FEE7FEE704480549D5
:10033000054A064B704700006D500008890100080F
:10034000E0040020E00A0020E0060020E006002093
:100350000FB4044910B503AA029800F0BBF810BC12
:100360005DF814FB7C00002070477047704770B543
:10037000044685690068C10601D5302600E02026C4
:10038000C00707D070BDD4E9012130469047206AEC
:10039000401C20626D1EF6D570BD70B5044685699F
:1003A0000078C00707D170BDD4E901212020904713
:1003B000206A401C20626D1EF6D570BD09684A0592
:1003C00001D540B27047C905FCD500B27047096835
:1003D0004A0501D5C0B27047C905FCD580B2704747
:1003E00070B50C460546012A05D02878800600D550
:1003F000EA69002302E0012305E05B1C934202D27C
:10040000E05C0028F9D1A869E618C01AA861286A3A
:10041000184428622846FFF7AAFF04E0D5E9012125
:1004200014F8010B9047B442F8D32846FFF7B5FF04
:1004300070BD00002DE9F0410646002410687529C2
:10044000314616A510D0FFF7B9FF002802DA404266
:1004500013A507E031688A0701D512A502E0490714
:1004600004D511A5012401E0FFF7B1FF00210A2204
:1004700006F1240709E0B0FBF2FCB0FBF2F302FB4B
:100480001C00303078541846491C0028F3D123460C
:100490002A463046BDE8F04100F055BA00000000A1
:1004A0002D0000002B0000002000000011680268F1
:1004B000006A530501D508700AE0D30501D508800C
:1004C00006E0130603D5C217C1E9000200E0086088
:1004D00001207047074B70B50D467B4400F01DFEB0
:1004E0000446284600F058FE10B14FF0FF3070BDB2
:1004F000204670BD4F5600002DE9FF5F15468A4625
:100500000446DFF8AC80F8440027D8E900103E46E6
:10051000CDE9001010E03AF816106A4602A800F083
:10052000DBFE411C07D02178890603D5E269391822
:1005300091420DD80744761C2078800602D5E069E8
:10054000B84205DDAE42E6DB3AF816000028E2D1FB
:10055000A069C01BA0612046FFF709FFD8E9001081
:10056000CDE90010002017E03AF818106A4602A8FA
:1005700000F0B2FEB0F1FF3F81460BD000250DF137
:10058000080B05E0D4E901211BF8050090476D1C1C
:100590004D45F7D308F10100B0428046E4DB206A04
:1005A000384420622046FFF7F8FEBDE8FF9F0000B8
:1005B0006A6000002DE9F0418046D21D22F007025A
:1005C0000025D2E90002F52915A614D0011E72F10A
:1005D000000106DA0023D0EB030063EB020211A650
:1005E00008E0D8F800108B0701D50FA602E04907F4
:1005F00001D50EA601251146002408F1240704E0C8
:1006000000F05CF930323A55641C50EA0102F7D12F
:100610002B46324621464046BDE8F04100F093B9F2
:10062000000000002D0000002B0000002000000052
:1006300030B4002100F1240408E002F00705D208DC
:10064000303542EA4372DB086554491C52EA03051F
:10065000F3D10468002310A2250708D504F0200474
:100660000C4304D0C46901230CA2641EC46130BCD5
:1006700000F069B910B5044621461068FFF7A7FEDF
:1006800002462046BDE810400023D1E7D21D22F0EB
:100690000701D1E90023CBE7000000003000000093
:1006A000F0B40D460188090502D5214C7C4402E0D6
:1006B0001F4C7C440E34002100F1240608E002F0B7
:1006C0000F071209E75D42EA03721B097754491CC0
:1006D00052EA0307F3D102780023120704D5702DE4
:1006E00006D009B1022311342246F0BC00F02BB928
:1006F00001231034F8E770B504460D462146106812
:10070000FFF765FE024629462046BDE870400023FB
:10071000C6E7D21D22F00703D3E90023C0E7036830
:10072000126843F0200303600823C3610023B7E786
:10073000CC5E00002DE9F05F894604464FF0000AC8
:10074000DFF874B1FB44C0F820A02046E168884778
:10075000002874D0252806D0D4E901219047206ACA
:10076000401C2062F1E700265F462046E16888478A
:100770002028054607DB312D05D2781910F8200C0A
:1007800008B10643F1E7B00701D526F00406C4F826
:100790001CA00027C4F818A02A2D09D0284605F06F
:1007A000A3FE38B304EB8708303DC8F8185019E0B1
:1007B00059F8041B204604EB87029161E1688847E1
:1007C000012F054618D1E069002820DA26F020061E
:1007D0001DE0D8F8180000EB800005EB4000303831
:1007E000C8F818002046E1688847054605F07CFEF9
:1007F0000028EED1012F0AD02E2D08D12046E16825
:1008000088477F1C0546022F46F02006C4DBA069FE
:10081000002803DA404246F00106A061F00701D04B
:1008200026F010066C2D0BD0682D09D04C2D39D038
:100830006A2D35D0742D35D07A2D33D016E038E0BE
:10084000E1682F4620468847B842054609D16C2FFB
:1008500026D04FF48060E16806432046884705466D
:1008600004E06C2F1AD04FF4807006430DB3A5F14D
:100870004100192802D8203546F400664A46294628
:10088000204626604E46FFF7CFFC80B101280BD0F2
:10089000F61D26F0070000F1080956E74020E4E7BE
:1008A0008020D8E70020D6E706F104094DE7284666
:1008B00052E7206ABDE8F09F5C5E000030B5B0F101
:1008C0000A0271F100034FEA900E4EEA817EB0EB0E
:1008D0000E0061EB91014FEA101E4EEA017E10EB13
:1008E0000E0041EB11114FEA102E4EEA016E10EB93
:1008F0000E0041EB11214FEA104E4EEA014E10EB73
:100900000E0041EB1141401841F100014FEAD000C7
:1009100040EA41704FEAD1014FEA810444EA907401
:1009200010EB800544EB01046D1944EB0404521BE9
:10093000A3414FF0000348BF0A3200D530BD401C30
:1009400041F1000130BD2DE9F0470D469946924630
:10095000044600F124080168880604D5E06921F006
:100960001001216000E00120A84201DD471B00E0EA
:100970000027A1697A1902EB0900081AA061207802
:10098000C00602D42046FFF7F2FC002608E0D4E9B6
:1009900001211AF806009047206A401C761C20624C
:1009A0004E45F4DB2078C0060AD52046FFF7DFFC71
:1009B00006E0D4E9012130209047206A401C2062E3
:1009C000381EA7F10107F4DC07E0D4E9012118F88B
:1009D00005009047206A401C2062281EA5F10105F1
:1009E000F3DC2046FFF7D9FC2078000602D5022070
:1009F000BDE8F0870120FBE72DE9FF4F0C461E46BE
:100A00004FF0FF378BB0D2E90001DDF860800A902B
:100A10008A46C1F30A5505B93D46002108464FF004
:100A20000000BAF1000F00F4400005DA00EB80008E
:100A30004FF4400101EA50004FEA9059B9F1010F1B
:100A400000DDB9460A9850EA4A000ED044F610502C
:100A5000A5F2FF3545432F14B8F1000F1ED07542A3
:100A6000291E1EDDC9F100021CE0B8F1010F4FF094
:100A7000000001D0302103E0F24305E02154401C86
:100A8000B042FBDB30460022002121540B99C1F813
:100A90000880C1E900200FB0BDE8F08FBD1B6D1CC0
:100AA000DEE74A4600DA694206A800F0D3FC06AB4E
:100AB00093E8070003AB83E8070050460A9905F066
:100AC00032F98DE80700A0F500501F380090039818
:100AD000002D0ADD42F21F014A460844002303A903
:100AE0000390684605F09CFB09E0A0F500504A46DB
:100AF0001F38002303A90390684605F0A6FB8DE884
:100B000007000004000C03D04FF0FF30410800E064
:100B10001046B8F1000F03D00022009215461EE0E7
:100B2000751E05D4FFF7CAFE303262556D1EF9D529
:100B3000B3460122084302D000227F1C04E0207843
:100B4000302801D100227F1E002A099784D01DE0A1
:100B5000112D07DAFFF7B2FE303262556D1C50EAF4
:100B60000102F5D1084302D00098C8B10EE000217F
:100B7000681E05E0235C625C63542254401E491CDD
:100B80008142F7DBAB46A81B401E0990002004F809
:100B90000B000B98099AC0F80880C0E9002B7AE78F
:100BA00011264FF0000857E72DE9F04F884604461C
:100BB000D21D22F0070191B0D1E90001CDE90A016F
:100BC00005F07AFC02460B98C00F01D02D2007E0FB
:100BD0002068810701D52B2002E0202101EAC00016
:100BE000032A099001D0072A05DB03464146204627
:100BF00000F0F0FB0BE12078800601D5E06900E011
:100C00000620B8F1650F814606D0B8F1660F18D0FE
:100C1000B8F1670F70D131E00020B9F1110F0090E9
:100C200001DB112301E009F101030AAA01A90CA8C3
:100C3000FFF7E2FEDDE90C70002609F101058346AD
:100C400047E001204B4600904FF000470AAA01A957
:100C50000CA8FFF7D1FEDDE90DB00C995D4600262A
:100C600010B909F101000D18B9EB050003D4C0F16A
:100C7000FF3609F10105A5EB09002BE0B9F1010FE1
:100C800001DA4FF001090020B9F1110F0090484638
:100C900001DD112300E003460AAA01A90CA8FFF711
:100CA000ABFEDDE90C704D46002683462078000738
:100CB0000AD4AB4500DA5D4601A8012D04DD4119D7
:100CC00011F8011C302907D04F4502DA17F1040F43
:100CD00004DA012082460FE06D1EEEE7002F02DCF1
:100CE000ED1B3E4403E0781CA84200DD7D1CB81BD0
:100CF00000F1010A4FF000472078000703D4AA450D
:100D000001DB4FF0FF3A0021B7F1004F0DF143082E
:100D10008DF8431024D002202B23002F01DA7F42CC
:100D20002D230A21021EA0F1010000DC5FB197FB18
:100D3000F1FC97FBF1F201FB1C7C17460CF1300C27
:100D400008F801CDEEE7A8F101000370218809053C
:100D500001D5452100E06521A0F1010800F8011C42
:100D600009980FA9A1EB0807FF1D00B10120411947
:100D700001EBEA70A1693844081A401EA06120788E
:100D8000C00602D42046FFF7F2FA099828B1D4E948
:100D900001219047206A401C20622078C00622D59D
:100DA0002046FFF7E4FA1EE0002E04DBB34502DD27
:100DB00001A8805D00E03020D4E901219047206A3D
:100DC000401C2062761CAAF101005FEA000A0AD1E9
:100DD00000F0D4FAC0680168405CD4E90121904772
:100DE000206A401C2062281EA5F10105DCDC07E01A
:100DF000D4E9012118F8010B9047206A401C2062B9
:100E0000381EA7F10107F3DC2046FFF7C6FA0320DE
:100E100011B041E62DE9F04F04460D46D21D22F0F7
:100E2000070089B0D0E900974846394605F044FBF1
:100E30000246F80F01D02D2307E02068810701D575
:100E40002B2302E0202101EAC0038DF820300BB1F2
:100E5000012000E00020032A824601D0072A04DB9B
:100E60002946204600F0B6FA3FE12078800601D4FA
:100E70000D2500E0E569C7F30A560D2D49DA00217A
:100E80004FEA175B08464FF00000002F00F44000C7
:100E900007DA00EB80004FF4400100EBD07001EA6C
:100EA00060008115012901DD4FF0FF3100224FEA7A
:100EB000850CBCF1180F06D31346ACF118004FF0A7
:100EC0008052C24003E04FF4801323FA0CF30CF17C
:100ED0000C0CBCF1200F04D3ACF1200C09FA0CF07F
:100EE00001E007FA0CF000294FF0004801DD18B9C5
:100EF0000FE00ED140450CD319EB02095F4121B937
:100F0000404502D19F4329EA0209BBEB175F00D09D
:100F1000761C2088000502D57B48784402E07A4898
:100F20007844193808AA302302F80A30037C0AF101
:100F30000101002E0AF1020A53546A4602DC4FF006
:100F4000300101E04FF031014FF001088DF8001041
:100F500002D0A6F2FF3603E059EA470100D06B4EFB
:100F6000002D02DC2178090704D54FF002082E215C
:100F70008DF80110C44600210BE0C7F303433F0185
:100F8000C35C491C6D1E02F80830052908F10108F0
:100F900001DA002DF1DC00210CE000EB1973491C93
:100FA0001B786D1E082902F808304FEA091908F16C
:100FB000010801DA002DF0DC21688B0602D516E06D
:100FC000A8F10108E04505DD02EB080313F8013C38
:100FD000302BF5D0B8F1000F09DD02EB080313F850
:100FE000013C2E2B03D1090701D4A8F10108002DE3
:100FF00005DD3E2102F808106D1E08F10108407C55
:10100000002E02F8080008F1010804DA2D207642CB
:1010100002F8080002E02B2002F808000A214FF431
:101020007A70864208F101080BDB96FBF0F330334F
:1010300002F8083096FBF0F308F1010800FB136694
:1010400001E0642E0CDB642096FBF0F3303302F8F1
:10105000083096FBF0F308F1010800FB136601E08D
:101060000A2E06DB96FBF1F0303002F8080008F19A
:10107000010896FBF1F001FB1060303002F8080027
:10108000A16908F1010808EB050202EB0A00081A41
:10109000A0612078C00602D42046FFF768F9216AD3
:1010A00008AE01EB0A00206204E0D4E9012116F841
:1010B000010B9047BAF1010AF7D22078C00602D599
:1010C0002046FFF754F96E4609E016F8010B3E285A
:1010D0000FD0D4E901219047206A401C2062B8F16A
:1010E0000108F2D22046FFF758F909B00320BDE805
:1010F000F08F206A2844206203E0D4E901213020E7
:1011000090476D1EEBD3F8E7AA56000002FCFFFFE4
:1011100001694A1C02610878704700B58FB0CDE9BB
:1011200001310021059105497944CDE903101146AB
:101130006846FFF7FFFA0FB000BD0000E5FFFFFFB4
:1011400010B5436913B1AFF3008001E0FFF748F930
:10115000012010BD127800F124010A7000224A70AB
:101160000122EDE711684FF0FF32E9E710B543695E
:1011700013B1AFF3008001E0FFF7BEF9012010BD0D
:10118000128800F1240182840022C2840122EDE74A
:1011900011684FF0FF32E9E7007B00F080007047F4
:1011A00010B54248542100F099FA4148542100F00A
:1011B00095FA4048542100F091FA3F493B483C4A97
:1011C0003F4B08603D490A603A491960531C03656A
:1011D000481C1065012008653B48344A39A1784411
:1011E00000F0CEF920B9384878440A3800F06FFA98
:1011F00037482F4A35A1784400F0C2F920B9344865
:1012000078440A3800F063FA32482A4A2FA1784419
:1012100000F0B6F920B92F4878440A3800F057FAA0
:1012200040232248DC000021224600F085F920B14D
:1012300025487844543800F04AFA1D482246402395
:10124000002100F079F920B121487844543800F0A9
:101250003EFA184822461023002100F06DF90028BC
:1012600006D01C487844BDE81040563800F02FBA2C
:1012700010BD104870B5006D20F001040B4800F05F
:10128000F7F90B4800F0F4F90A4800F0F1F909E029
:10129000206D20F00105204600F0EAF9204600F01C
:1012A00071F82C46002CF3D170BD000028000020FE
:1012B0007C000020D000002000000020040000205E
:1012C0000800002072000000F953000077000000C1
:1012D000E5530000D15300002DE9F04116460C46BD
:1012E000054600F043F8036893F80101012807D090
:1012F000FF2C12D8185D80B101202C70BDE8F08160
:10130000D3F807013246214603F20713C7182846CF
:10131000BC46BDE8F041002360474FF0FF30EDE7E9
:10132000754600F035FAAE4605006946534620F092
:101330000700854618B020B5FEF7F8FFBDE820404D
:101340004FF000064FF000074FF000084FF0000B81
:10135000AC46ACE8C009ACE8C009ACE8C009ACE8F0
:10136000C00921F007018D467047000010B500F05C
:1013700005F8001D10BD00BFAD51000000487047CA
:101380004401002070B50446051F00F005FA00680E
:10139000002C14BF446870BD002C18BFAC423CBF89
:1013A00020466468F8D301680A18AA4218BF45604D
:1013B00003D12A6805461144016028684119A142F9
:1013C0001CBF6C6070BD616869602168084428605A
:1013D00070BD00002DE9F0411F4604460326016858
:1013E000072A01F4006004DB08B116A505E016A584
:1013F00003E008B115A500E015A521F0100020605C
:10140000A069C01EA0610FB1401EA0612046FEF77A
:10141000AEFF4FB1D4E9012138469047206A401C05
:101420002062C01C206206E0206AFAE7D4E90121AC
:1014300015F8010B9047761EF8D22046FEF7ADFF57
:10144000BDE8F0814E414E006E616E00494E46008F
:10145000696E66002DE9F047814616468AB0354828
:1014600078440DC88DE80D0032487844801C03ACE8
:101470000DC884E80D0041F69B300844372190FBED
:10148000F1F290FBF1F5A5F1800501FB12041B3C84
:1014900002D56442012000E00020DFF898A08046D9
:1014A0000027FA44AAF1BE0A0EE0E0070AD032464D
:1014B000684607EB470101230AEB810104F0C5FEF2
:1014C0008DE8070064107F1C002CEED1194F7F447B
:1014D000AE3F19E0E80715D007EB04100DF1180A2C
:1014E00090E80E008AE80E00C068F04201D1981919
:1014F00008903246012306A903A804F0A6FE03AB18
:1015000083E807006D10641C002DE3D14FF0010348
:1015100032466946B8F1000F03A802D004F080FEFD
:1015200001E004F092FEC9E90001C9F808200AB000
:10153000BDE8F0870052000070B5C468A50713D05D
:10154000650211D4B2F5807F09D0B2F5007F06D0D4
:10155000B2F5806F08D1012300F1240106E05D1E81
:101560006FF07F46B54201D3012070BD0161C361B8
:10157000416024F470611143C160002070BD00001F
:101580002DE9F0410C461646070047D0104600F002
:101590006FF82078611C61280AD0722802D0772861
:1015A0003CD102E00125002405E00225042402E0EC
:1015B000082448F2020511F8010B2B2806D06228F6
:1015C00009D011F8010C74280AD00BE045F003058E
:1015D00044F00204EFE745F0040544F00104EAE7B3
:1015E00044F010043846214600F09FF8411C15D005
:1015F0000021316171604FF40071F560F16170613B
:10160000200704D530460222002100F03FF9306D5A
:1016100040F0010030653046BDE8F0810020FBE776
:101620002DE9F0410D460646104C206DC10704D04F
:10163000410804D020F00104F7E722460EE05420D0
:1016400000F0F5F807000ED0206D47F001010843C7
:1016500054212065384600F041F83A462946304684
:10166000BDE8F0418CE70020D6E70000280000200C
:101670002DE9F04704464FF0FF380026C568D4E94D
:101680000497A80718D0204600F0BCF9384600F0AF
:1016900056F8002800DA4646280502D54846FFF7E6
:1016A00071FE4C21204600F019F8206D20F0010059
:1016B00020653046BDE8F0874046FBE710B504469C
:1016C000AFF300802046BDE81040FEF71ABE10B50B
:1016D00000F0E2F9BDE8104000F0D8B94FF0000288
:1016E00000B5134694469646203922BFA0E80C5018
:1016F000A0E80C50B1F12001BFF4F7AF090728BFF3
:10170000A0E80C5048BF0CC05DF804EB890028BF6E
:1017100040F8042B08BF704748BF20F8022B11F097
:10172000804F18BF00F8012B70470EB5CDE90001BE
:1017300000F074FA029069460120ABBE0EBD08B5F8
:10174000694600900220ABBE08BD1FB58DE80700BA
:1017500069460520ABBE04B010BD1FB58DE80F0073
:1017600069460620ABBEF6E708B569460090092039
:10177000ABBE08BD1CB5CDE9000169460A20ABBE71
:101780001CBD704708B5694600900C20ABBE08BD73
:101790000048704724010020004870472C010020B9
:1017A000704770477047704738B504460A460020B6
:1017B0006946AFF30080002808BF38BD0246009993
:1017C000204600F0D0F9012038BD012000F01FBAFA
:1017D000F8B5AFF30080054600200C460C2000BF92
:1017E0000646A819A0420DD9324669460020AFF33B
:1017F0000080070008BF00F00AFA0098A04218BF56
:101800000546C419FFF7C8FF05600746F01D20F024
:1018100007004619284600F0A0F9B44208BFF8BDF9
:10182000A21B31463868BDE8F84000F09CB970B59D
:101830000646FFF7B1FF056806F10B0020F007042C
:10184000B4429CBF002070BD2B466A68BAB11068D4
:10185000A04210D304F1080188423CBF5068586090
:1018600007D35168101941601168091B0160586065
:101870001460101D70BD13465268002AE7D121463E
:101880002846FFF791FF0028DED170BD2DE9F04119
:10189000044616460D464769007B80072ED0384621
:1018A000FFF762FF50BB3EB3012E02D0022E25D1BE
:1018B00004E0204600F071F905441DE03846FFF7CA
:1018C00061FFE168002841F01001E16005DA20467F
:1018D00000F058F80120BDE8F081C9030BD562681B
:1018E000E16A914200D81146A26911442269891A1D
:1018F000814200DD08460544002D01DA0220EAE7B6
:10190000E16A6068E268814206D29103E06203D531
:1019100022F4003141F01002A6690027AE4213DC28
:10192000E16A814201D90B4600E0034603EB060C55
:101930002369ACEB030CAC4506DD814201D98C4632
:1019400000E084469C4505D1A760276042F0200056
:10195000A5620DE0AD1BE669AE1B8142A66000D911
:101960000846C01A281A20605819606022F020002A
:1019700003490840E060002084F84870ABE70000AD
:10198000BFCFD7FFC16821F4001141F08001C160D1
:1019900000218160016070472DE9F74F15460C4624
:1019A0004FF0FF3B3848D768D2F814A0074209D05F
:1019B0005046A969FFF7DEFE002819DB3248C04314
:1019C0000740EF604FF000496FF000484C4501D3ED
:1019D000464600E0264600993B4650463246FFF711
:1019E000B4FEA96920F00042B21A1144A96128B1DD
:1019F0002846FFF7C7FF5846BDE8FE8FA41BE5D178
:101A00000020F9E770B504460569C06A616888423C
:101A100000D80846E16821F42011E160C90312D51D
:101A2000A84208D02246411B2846FFF7B5FF10B157
:101A30004FF0FF3070BD0020E562C4E90150E0685E
:101A400020F48030E060002070BD10B50446C0680E
:101A500020F02000E060A16AA06988420DD02046F5
:101A6000FFF7D0FFE06820F4405040F01000E06045
:101A7000A06AA0612069E062606044F24001E06811
:101A80008843E06010BD000010000200002801D073
:101A900000F05CB87047000010B5014602A000F0ED
:101AA0009DF8012010BD000053494752545245444F
:101AB0003A2052656469726563743A2063616E27E7
:101AC00074206F70656E3A20000000000000000076
:101AD00030B44FF0013C50F8042B51F8043BCCFAE1
:101AE00052F4D51A20D1FCB950F8042B51F8043B1C
:101AF000CCFA52F4D51A17D1B4B950F8042B51F8D6
:101B0000043BCCFA52F4D51A0ED16CB950F8042B20
:101B100051F8043BCCFA52F4D51A05D1002CDAD096
:101B200030BC4FF00000704729BAB1FA81F111F0D2
:101B30001801D1F120008440F2D1CA40CB4012F00C
:101B4000FF0213F0FF0330BCD01A70470149182080
:101B5000ABBEFEE726000200704700210160416035
:101B600070470C207047034640688C46002818BF19
:101B700088423CBF03464068F8D31868184488423E
:101B800007D00CF1030020F00700001D411A521A83
:101B90000146081D0A60FFF7F5BB10B50146C26893
:101BA000900703D0900607D5886A0AE000F05CF839
:101BB00001210160881E10BD8B69486818440B69BB
:101BC000C01A91F848301BB191F84910401A10BD65
:101BD0001103FCD50028FADD401E10BD70B5054686
:101BE0000C460A2000E06D1C00F037F835B128786B
:101BF0000028F8D102E0641C00F02FF814B120781E
:101C00000028F8D1BDE870400A2000F026B810B5D1
:101C100000F02EF8BDE81040FFF738BF10B5431CA8
:101C200002E010F8011B71B18107FAD14FF00132C7
:101C300002C88C1A8C4314EAC211F9D0C01A0A06E1
:101C400003D0C01E10BDC01A10BD0A0401D0801EF2
:101C500010BD0902FCD0401E10BD08B569468DF8C4
:101C600000000320ABBE08BD0048704724010020DF
:101C700010B5012805D0002103A0FFF7AFFF012018
:101C800010BD09A1F8E7000053494752544D454D96
:101C90003A204F7574206F662068656170206D650D
:101CA0006D6F7279000000003A2048656170206D08
:101CB000656D6F727920636F727275707465640000
:101CC00082B001908DF803109DF8030030B1FFE75A
:101CD0000199886840F00100886005E001998868F2
:101CE00020F001008860FFE702B0704782B00190E9
:101CF0000020009042F20431C4F201010868009013
:101D0000009843F2E002CFF6FC7210400090019A76
:101D10001068D2F804C09368D26840EA0C001843F7
:101D200002430098104300900098086002B070478A
:101D300081B00090009900200860009948600099E7
:101D400088600099C86001B07047000081B00090C1
:101D50000098C06C80B201B07047000082B0019062
:101D60008DF8031000208DF80200019800689DF89E
:101D70000310084204D0FFE701208DF8020003E0C1
:101D800000208DF80200FFE79DF8020002B07047C6
:101D900084B003900291002001908DF80300039815
:101DA0004068019001984FF6FF61CFF6FF4108406F
:101DB000019002980179006840EA012101980843E6
:101DC00001900198039948600398806801900198F8
:101DD0004FF2FD71CCF2FF010840019002990869B1
:101DE000CA6810438A681043497940EA4101019862
:101DF000084301900198039988600398C06A019094
:101E0000019820F4700001900298007D411E9DF819
:101E1000030008438DF803009DF80310019840EA81
:101E20000150019001980399C86204B07047000006
:101E300084B003908DF80B108DF80A208DF80930CE
:101E40000020019000909DF80B000A2821DBFFE79D
:101E50000398C06801909DF80B0000EB4000A0F1D2
:101E60001E01072088400090009901988843019046
:101E70009DF809009DF80B1001EB41011E398840C7
:101E80000090009901980843019001980399C86057
:101E90001DE00398006901909DF80B0000EB4001E4
:101EA00007208840009000990198884301909DF890
:101EB00009009DF80B1001EB41018840009000994A
:101EC000019808430190019803990861FFE79DF884
:101ED0000A00062820DCFFE70398406B01909DF87C
:101EE0000A0000EB8000411F1F20884000900099ED
:101EF0000198884301909DF80B009DF80A1001EBB2
:101F000081010539884000900099019808430190AB
:101F100001980399486347E09DF80A000C2821DCEA
:101F2000FFE70398006B01909DF80A0000EB80002A
:101F3000A0F123011F208840009000990198884358
:101F400001909DF80B009DF80A1001EB81012339E7
:101F500088400090009901980843019001980399E6
:101F6000086320E00398C06A01909DF80A0000EB26
:101F70008000A0F141011F20884000900099019845
:101F8000884301909DF80B009DF80A1001EB810138
:101F900041398840009000990198084301900198C8
:101FA0000399C862FFE7FFE704B0704781B0009073
:101FB0000099886840F08040886001B07047000058
:101FC00081B0009000990020086000990871009984
:101FD0004871009988600099C8600099086100996B
:101FE0000120087501B0704782B00090009841F65A
:101FF0005931884204D3FFE741F65830019002E09E
:1020000000980190FFE7019802B0704780B584B056
:10201000039002F0D5FC029003984FF47A71484384
:102020000190FFE702F0CCFC0299401A0199884226
:1020300001D2FFE7F6E704B080BD000080B503F0F1
:1020400075FB02F087FE01F07FF901F0A7FD80BD6E
:1020500080B586B002F0B4FC059040F21200C2F2E6
:1020600000000078002800F08280FFE7059840F229
:10207000DC41C2F200010968401A42F21071884244
:1020800075D3FFE7059840F2DC41C2F20001086019
:1020900040F28410C2F20000B0F90010002003905A
:1020A00089B9FFE740F29610C2F20000B0F90010C3
:1020B0000020039039B9FFE701F074FDB0FA80F019
:1020C00040090390FFE7039800F001008DF813002A
:1020D0009DF8130088B3FFE740F2A840C2F2000069
:1020E000006838B9FFE7059840F2A841C2F2000144
:1020F0000860FFE7059840F2A841C2F200010968B4
:10210000401A48F2A061C0F2010188420AD3FFE7F9
:1021100001200021029103F087FC0299022003F0C4
:1021200083FC09E001200021019103F08BFC01995F
:10213000022003F087FCFFE718E040F2A841C2F25A
:1021400000010020086040F28410C2F20000B0F9E3
:102150000010012003F076FC40F29610C2F200005D
:10216000B0F90010022003F06DFCFFE7FFE706B0B6
:1021700080BD000080B58EB002F022FC0D9040F2D0
:10218000E010C2F200000490408802F087FA014695
:102190000498ADF83210008802F080FA01460498E5
:1021A0004942ADF8301040885021029102F044FAC3
:1021B0000299024604988DF82F20008802F03CFA1C
:1021C000014604988DF82E1040887821039102F082
:1021D00033FA0399024604988DF82D20008802F006
:1021E0002BFA014604988DF82C10808802F0CAFA68
:1021F00001460498ADF82A10C08802F003FB01469E
:1022000004988DF82910008902F0FCFA0146049820
:102210008DF82810408902F0F5FA8DF82700BDF9F5
:102220003200BDF82A10484344F6D351C1F262018E
:1022300050FB01F2901100EBD2700890BDF9300014
:10224000BDF82A20504350FB01F1881100EBD170FA
:1022500007909DF82F0058B1FFE79DF82E0038B188
:10226000FFE740F21E01C2F200010120087017E0F2
:1022700040F21E00C2F20000007880B1FFE79DF836
:102280002D0020B1FFE79DF82C0038B9FFE740F2A0
:102290001E01C2F2000100200870FFE7FFE7FFE720
:1022A00040F21E00C2F20000007840B1FFE70020BB
:1022B000ADF83200ADF83000069005900FE0BDF9A2
:1022C000300030B1FFE7079806900798404205902C
:1022D00004E00898069008980590FFE7FFE7069845
:1022E000B0F57A7F04DDFFE74FF47A7006900BE0DB
:1022F000069810F57A7F06DAFFE74FF61840CFF61A
:10230000FF700690FFE7FFE70598B0F57A7F04DDE0
:10231000FFE74FF47A7005900BE0059810F57A7F8F
:1023200006DAFFE74FF61840CFF6FF700590FFE79B
:10233000FFE7BDF8320040F29411C2F200010880BC
:10234000BDF8300040F29A11C2F200010880BDF8D9
:102350002A0040F29811C2F2000108809DF828007E
:1023600040F20C01C2F200010870BDF82A0001F031
:102370006DFE01F017FCB0B1FFE740F2D410C2F2DD
:1023800000000088404240F28411C2F2000108803F
:1023900040F2DA10C2F20000008840F29611C2F258
:1023A000000108801FE0069849F64042504344F679
:1023B000D351C1F2620150FB01F3980900EBD370D5
:1023C000404240F28413C2F2000318800598504343
:1023D00050FB01F1880900EBD17040F29611C2F276
:1023E00000010880FFE79DF82800022808D1FFE7D8
:1023F00040F20E01C2F2000140F2F260088014E0E7
:102400009DF8280040B9FFE740F20E01C2F200013A
:1024100040F2D360088007E040F20E01C2F20001F2
:1024200040F2DC500880FFE7FFE740F20E00C2F206
:102430000000008802F082F940F23441C4F2000149
:10244000086040F2BA40C2F200000078D8B9FFE755
:102450009DF8270040F21F01C2F2000108709DF8AC
:10246000290040F22001C2F2000108700D9840F2EC
:10247000BC41C2F20001086040F2BA41C2F2000160
:102480000120087025E09DF8270040F21F01C2F2EC
:102490000001097888421BD0FFE79DF8270040F231
:1024A0001F01C2F2000108709DF82700022805D123
:1024B000FFE741F2883000F06BFF08E09DF827004D
:1024C00020B9FFE7002000F063FFFFE7FFE7FFE729
:1024D000FFE79DF8290028B1FFE79DF829000228B1
:1024E00052D1FFE79DF8290040F22001C2F200011D
:1024F000097888420ED1FFE70D9840F2BC41C2F244
:1025000000010968401A4DF2C041C0F20101884241
:1025100039D3FFE79DF8290000BBFFE740F28C109C
:10252000C2F20000006840F21001C2F20001098806
:1025300088420ED9FFE740F28C10C2F2000000681A
:1025400040F21001C2F200010988401A00F020FF99
:1025500003E0002000F01CFFFFE70DE040F28C10CC
:10256000C2F20000006840F21001C2F200010988C6
:10257000084400F00DFFFFE70D9840F2BC41C2F2A5
:1025800000010860FFE71DE09DF82900012818D12F
:10259000FFE740F22000C2F200000078012810D0CE
:1025A000FFE70020019000F0A9FE019840F286119B
:1025B000C2F20001087040F28811C2F200010880E6
:1025C000FFE7FFE79DF8290040F22001C2F2000179
:1025D00008700EB080BD0000FFE7FEE780B503F095
:1025E000F9F880BD83B00290019101980090012814
:1025F00033D0FFE70098042836D0FFE7009808287A
:1026000036D0FFE70098202836D0FFE70098402812
:1026100036D0FFE70098B0F5807F3DD0FFE7009807
:10262000B0F5007F3CD0FFE70098B0F5806F3BD05D
:10263000FFE70098B0F5006F3AD0FFE70098B0F5DB
:10264000004F3CD0FFE70098B0F5803F1CD0FFE77B
:102650000098B0F5003F1BD038E0029940F201101D
:10266000C0F20100886032E002990820C8602EE0C4
:1026700002991020C8602AE002990820086126E02B
:1026800002991020086122E00299082048601EE0AB
:102690000299102048601AE002990420486016E070
:1026A00002990420486012E00299042048600EE07C
:1026B00002990020886102990420486007E002998D
:1026C0000020886102990420486000E0FFE703B021
:1026D0007047000080B584B00390039846F2004133
:1026E000C4F2000188420BD1FFE74FF00070029066
:1026F000012101F0B7FE0298002101F0B3FE0AE0CB
:102700004FF080600190012101F0ACFE01980021A2
:1027100001F0A8FEFFE704B080BD000082B0019088
:10272000002000900198817A01208840009046F2B4
:102730000061C4F20001086840F001000860009ADE
:1027400046F21C61C4F200010868904308600198D9
:10275000007B08BBFFE7009A46F20C61C4F200015F
:102760000868904308600199CA88488840EA024096
:102770008A7A46F24061C4F2000141F832000199C0
:102780008A88088840EA02408A7A46F24461C4F2A4
:10279000000141F83200FFE70198007B012821D1B8
:1027A000FFE7009A46F20C61C4F20001086810438A
:1027B000086001990A88488840EA02408A7A46F20D
:1027C0004061C4F2000141F8320001998A88C8884A
:1027D00040EA02408A7A46F24461C4F2000141F8BC
:1027E0003200FFE70198C07A48B9FFE7009A46F245
:1027F0000461C4F2000108689043086008E0009A90
:1028000046F20461C4F20001086810430860FFE763
:102810000198008948B9FFE7009A46F21461C4F2B2
:102820000001086890430860FFE7019800890128CB
:1028300009D1FFE7009A46F21461C4F2000108686A
:1028400010430860FFE70198407B012809D1FFE7AA
:10285000009A46F21C61C4F2000108681043086047
:10286000FFE746F20061C4F20001086820F00100B1
:10287000086002B07047000080B584B003900291F8
:1028800000208DF80700039840690299084200F083
:10289000B980FFE70298009001283BD0FFE700983D
:1028A000022842D0FFE70098042846D0FFE70098AE
:1028B00008284AD0FFE7009810284ED0FFE700987C
:1028C000202852D0FFE70098402856D0FFE7009814
:1028D000B0F5807F69D0FFE70098B0F5007F6CD03D
:1028E000FFE70098B0F5806F6FD0FFE70098B0F574
:1028F000006F72D0FFE70098B0F5004F75D0FFE78A
:102900000098B0F5803F40D0FFE70098B0F5003F59
:1029100043D072E00398806840F20111C0F20101D7
:1029200000F07EFB8DF807006BE00398C068032180
:1029300000F076FB8DF8070063E00398C06808217B
:1029400000F06EFB8DF807005BE00398C068102173
:1029500000F066FB8DF8070053E00398006903213F
:1029600000F05EFB8DF807004BE00398006908213A
:1029700000F056FB8DF8070043E003980069102132
:1029800000F04EFB8DF807003BE0039840680821FB
:1029900000F046FB8DF8070033E0039840681021F3
:1029A00000F03EFB8DF807002BE0039880690121C1
:1029B00000F036FB8DF8070023E0039880690221C0
:1029C00000F02EFB8DF807001BE0039880690421BE
:1029D00000F026FB8DF8070013E003988069702152
:1029E00000F01EFB8DF807000BE0039840680421FF
:1029F00000F016FB8DF8070003E000208DF80700BB
:102A0000FFE703E000208DF80700FFE79DF80700CF
:102A100004B080BD83B0029001918DF803209DF831
:102A2000030030B1FFE7019A0299486910434861F9
:102A300005E0019A0299486990434861FFE703B0B5
:102A40007047000086B00590049100208DF80F00BB
:102A500002900599086820F002000860059908684E
:102A600040F001000860FFE70598406800F00101B0
:102A700000200129019008D0FFE702984FF6FF716E
:102A8000401A18BF01200190FFE70198C00720B14C
:102A9000FFE7029801300290E6E70598406800F0F1
:102AA0000100012804D0FFE700208DF80F00A4E00A
:102AB00004988079012806D1FFE70599086840F05D
:102AC0008000086005E00599086820F08000086033
:102AD000FFE70498C079012806D1FFE70599086847
:102AE00040F04000086005E00599086820F04000CB
:102AF0000860FFE70498007A012806D1FFE70599EE
:102B0000086840F02000086005E00599086820F09A
:102B100020000860FFE70498407A012806D1FFE70B
:102B20000599086840F01000086005E005990868FC
:102B300020F010000860FFE70498807A012806D191
:102B4000FFE70599086840F00800086005E005996E
:102B5000086820F008000860FFE70498C07A0128A0
:102B600006D1FFE70599086840F00400086005E019
:102B70000599086820F004000860FFE70499887848
:102B800091F803C00B794A79800740EA0C6040EA6B
:102B9000034040EA02500988013908430599C86199
:102BA0000599086820F00100086000200290FFE706
:102BB000059841680020C907009041B1FFE70298DD
:102BC0004FF6FF71401A18BF01200090FFE70098F0
:102BD000C00720B1FFE7029801300290E8E70598AE
:102BE0004068C00720B1FFE700208DF80F0003E028
:102BF00001208DF80F00FFE7FFE79DF80F0006B0FA
:102C00007047000082B001908DF8031000208DF80D
:102C100002009DF8030038B9FFE70198C06800F092
:102C200003008DF8020010E09DF80300012807D191
:102C3000FFE70198006900F003008DF8020003E04F
:102C400000208DF80200FFE7FFE79DF8020002B0C8
:102C50007047000083B002908DF807100092029830
:102C60009DF8071000EB0110D0F8B00100F004004F
:102C7000009908720098007A58B9FFE702989DF809
:102C8000071000EB0110D0F8B001400D009908606A
:102C90000AE002989DF8071000EB0110D0F8B0018F
:102CA000C00800994860FFE702989DF8071000EB04
:102CB0000110D0F8B00100F00200009948720298AB
:102CC0009DF8071000EB0110D0F8B40100F00F00E0
:102CD0000099887202989DF8071000EB0110D0F857
:102CE000B401000A0099C87402989DF8071000EB1F
:102CF0000110D0F8B8010099C87202989DF8071029
:102D000000EB0110D0F8B801000A0099087302988E
:102D10009DF8071000EB0110D0F8B801000C0099E5
:102D2000487302989DF8071000EB0110D0F8B80125
:102D3000000E0099887302989DF8071000EB0110AF
:102D4000D0F8BC010099C87302989DF8071000EBF9
:102D50000110D0F8BC01000A0099087402989DF88F
:102D6000071000EB0110D0F8BC01000C009948746A
:102D700002989DF8071000EB0110D0F8BC01000E7E
:102D8000009988749DF8070030B9FFE70299C86878
:102D900040F02000C86005E00299086940F020007A
:102DA0000861FFE703B0704781B0009000990020F0
:102DB00088710099C8710099087200994872009949
:102DC00088720099C872009988700099C87000993B
:102DD00003200871009902204871009901200880A1
:102DE00001B0704783B00290019100208DF803007C
:102DF000029880684001002804D5FFE700208DF884
:102E0000030019E0029880680001002804D5FFE75C
:102E100001208DF803000EE002988068C0000028B1
:102E200004D5FFE702208DF8030003E004208DF8AD
:102E30000300FFE7FFE7FFE79DF8030004286ED0DB
:102E4000FFE702989DF8031000EB0111D1F8800113
:102E500000F00100C1F880010198007A80B9FFE715
:102E600001980168407A40EA415202989DF80310A7
:102E700000EB0111D1F880011043C1F8800112E08C
:102E800001994A68087A40EAC200497A40EA010298
:102E900002989DF8031000EB0111D1F88001104356
:102EA000C1F88001FFE70199887A00F00F0088726D
:102EB00002989DF8031000EB0111D1F8840120F075
:102EC0000F00C1F884010198827A02989DF80310DE
:102ED00000EB0111D1F884011043C1F8840101987D
:102EE000D0F80B0002999DF8032001EB0211C1F804
:102EF00088010198D0F80F0002999DF8032001EB9A
:102F00000211C1F88C0102989DF8031000EB011129
:102F1000D1F8800140F00100C1F88001FFE79DF881
:102F2000030003B07047000085B004908DF80F10C7
:102F3000002002909DF80F000146019140B1FFE78B
:102F4000019801280CD0FFE70198022811D018E061
:102F5000049880680321C0F200410840029013E009
:102F60000498806840F20031C0F6000108400290E9
:102F70000AE0049880680021C1F203010840029031
:102F800002E000200290FFE70298009060B3FFE7A4
:102F900000980121C0F20041884228D0FFE7009844
:102FA0000321C0F2004188422AD0FFE7009840F296
:102FB0000011C0F6000188421CD0FFE7009840F2E3
:102FC0000031C0F6000188421DD0FFE700980021C3
:102FD000C1F20101884210D0FFE700980021C1F240
:102FE0000301884212D014E00220029014E0002075
:102FF000029011E0002002900EE0002002900BE011
:103000000120029008E00120029005E001200290DA
:1030100002E000200290FFE79DF8080005B070472D
:1030200083B00290019100208DF80300029801996D
:10303000084204D0FFE701208DF8030003E00020E0
:103040008DF80300FFE79DF8030003B07047000010
:103050007047000080B584B001F070FF43F60000B7
:10306000C4F20200016840F2A412C2F20002116030
:1030700043F60801C4F202010A6840F2A013C2F24A
:1030800000031A6040F21802C2F20002126840F215
:10309000A813C2F200031A600968C1F3810140F26B
:1030A000BF12C2F2000211700168C1F3404140F248
:1030B000B412C2F2000211700068C0F3406040F226
:1030C000BE11C2F20001087001F07AFC03900020EA
:1030D0000190FFE70198C0087C2805D8FFE7FFE7CB
:1030E000019801300190F5E701F06AFC0290029826
:1030F0000399411A40F2B010C2F20000016000686A
:10310000002818BF012040F2AC11C2F20001087083
:1031100004B080BD80B58CB00B90012104910846AD
:1031200001F068F90499102001F0B8F90020C4F208
:103130000200019009210722009200F0E5FB009AAD
:1031400001980A2100F0E0FB019804994FF4C06255
:10315000099202228DF82820002302938DF82A304C
:103160008DF829208DF82B1009A900F051FB029849
:103170000B990591ADF81800ADF81A00ADF81C00D8
:10318000ADF820000C20ADF81E0041F20000C4F2A2
:103190000100039005A902F0BBF90398049902F01D
:1031A0007FF90CB080BD000080B501F05DFB80BDF3
:1031B00080B501F05FFB80BD80B501F061FB80BD93
:1031C00080B501F063FB80BD81B00090009843F6AC
:1031D0001441C4F20101086001B0704782B001904F
:1031E00000208DF8030043F61440C4F2010000688B
:1031F0000199084204D0FFE701208DF8030003E0A5
:1032000000208DF80300FFE79DF8030002B070472F
:1032100082B001900020009043F60040C4F201000B
:10322000009001988079002859D0FFE70198026842
:1032300043F60041C4F20101086890430860019818
:10324000026843F60441C4F2010108689043086033
:10325000019801790098084400900198026800994B
:103260000868104308600198026843F60841C4F2F8
:1032700001010868904308600198026843F60C4118
:10328000C4F2010108689043086001984079102851
:1032900013D1FFE70198026843F60841C4F2010127
:1032A0000868104308600198026843F60C41C4F2B4
:1032B000010108681043086010E043F60040C4F2C2
:1032C000010000900198417900980844009001980D
:1032D00002680099086810430860FFE70BE0019856
:1032E00001790098084400900198026800990868E4
:1032F00090430860FFE702B07047000080B582B0DD
:103300008DF8070003208DF80100F3208DF80200EE
:10331000AB208DF803009DF807008DF80400002015
:103320008DF805006B208DF806000DF101000621D7
:1033300000F0D6F89DF8070040F2AC41C2F200015F
:10334000087002B080BD000080B582B032200190CC
:10335000FEF75CFE0120FFF7D1FF0198FEF756FE55
:1033600000F0AAF80198FEF751FE40F28C11C2F26B
:1033700000010020086040F28611C2F200010870CE
:1033800040F28811C2F20001088002B080BD000046
:1033900080B584B0039040F2AC40C2F200000078E7
:1033A00038B9FFE70120FFF7A9FF0220FEF72EFE44
:1033B000FFE70398FEF718FE0390039840F28C1184
:1033C000C2F200010968884201D1FFE738E00399A1
:1033D00040F28C10C2F2000001900268002091427D
:1033E00038BF01208DF80B009DF80B0003990122D6
:1033F00000F028F80199039808609DF80B104FF031
:10340000FF30002908BF012040F28611C2F20001FE
:1034100008709DF80B104FF61840CFF6FF7000298A
:1034200008BF4FF47A7040F28811C2F200010880A0
:1034300040F29011C2F20001086801300860FFE715
:1034400004B080BD80B586B08DF8170004918DF86A
:103450000F2003208DF80200FD208DF803009DF859
:1034600017008DF8040001208DF80500F4208DF878
:10347000060032208DF807009DF813008DF8080033
:10348000BDF812008DF809000498000A8DF80A00B2
:1034900004988DF80B009DF80F008DF80C000020AB
:1034A0008DF80D006B208DF80E000DF102000D213E
:1034B00000F016F806B080BD80B582B003208DF80C
:1034C00004000A208DF805006D208DF806006B20A1
:1034D0008DF8070001A8042100F002F802B080BDB9
:1034E00080B588B006908DF8171000208DF8160072
:1034F0008DF815009DF81700012804D8FFE700207B
:103500008DF81F00B0E0FFE79DF816009DF817103A
:103510000239C9B2884280F2A380FFE7069840785A
:103520008DF80B0000208DF80C008DF80D008DF843
:103530000E008DF80F008DF810008DF811008DF839
:103540001200069801789DF8150040EA01200190CC
:103550009DF817009DF81610401A02388DF81400D7
:103560009DF81400062804D8FFE79DF81400009089
:1035700002E007200090FFE700988DF813000699FD
:103580009DF81600084480788DF80C009DF8130013
:10359000022808D3FFE706999DF816000844C07872
:1035A0008DF80D00FFE79DF81300032808D3FFE70F
:1035B00006999DF81600084400798DF80E00FFE783
:1035C0009DF81300042808D3FFE706999DF816001C
:1035D000084440798DF80F00FFE79DF81300052897
:1035E00008D3FFE706999DF81600084480798DF806
:1035F0001000FFE79DF81300062808D3FFE706999F
:103600009DF816000844C0798DF81100FFE79DF879
:103610001300072808D3FFE706999DF81600084411
:10362000007A8DF81200FFE701989DF81310013120
:10363000CAB20DF10B0100F01BF820B9FFE7002022
:103640008DF81F0010E09DF816009DF81310084437
:103650008DF816009DF8150001308DF8150053E720
:1036600001208DF81F00FFE79DF81F0008B080BD06
:1036700080B594B0129011918DF8432000200B90EA
:1036800012990C9104218DF834108DF835009DF8B5
:1036900043008DF836009DF8430020B1FFE71198F4
:1036A0000078089002E000200890FFE708988DF865
:1036B00037009DF84300022804D3FFE711984078B3
:1036C000079002E000200790FFE707988DF8380088
:1036D0009DF84300032804D3FFE7119880780690F3
:1036E00002E000200690FFE706988DF839009DF86B
:1036F0004300042804D3FFE71198C078059002E046
:1037000000200590FFE705988DF83A009DF84300EA
:10371000052804D3FFE711980079049002E0002007
:103720000490FFE704988DF83B009DF843000628BD
:1037300004D3FFE711984079039002E00020039042
:10374000FFE703988DF83C009DF84300072804D359
:10375000FFE711988079029002E000200290FFE7D5
:1037600002988DF83D009DF84300082804D3FFE738
:103770001198C079019002E000200190FFE70198C4
:103780008DF83E0046F20040C4F200000BA9FFF79E
:1037900029FB8DF82B009DF82B00032804D3FFE7AD
:1037A00000208DF84F002EE001F00AF90990FFE7A4
:1037B0009DF82B1046F20040C4F20000FFF7B4FB66
:1037C0008DF82A009DF82A00012804D1FFE7012086
:1037D0008DF84F0017E09DF82A0020B9FFE7002080
:1037E0008DF84F000FE0FFE701F0EAF80999401A61
:1037F00048F2A061C0F201018842D9D3FFE700205E
:103800008DF84F00FFE79DF84F0014B080BD000019
:1038100085B00490039100200290019000900290E6
:10382000FFE702980F286CD8FFE702990120884033
:103830000190039800680199084000900098019950
:10384000884259D1FFE702984100032000FA01F2B3
:103850000499086890430860039800790299490028
:1038600000FA01F20499086810430860039800798F
:10387000012805D0FFE703980079022827D1FFE748
:1038800002984100032000FA01F2049988689043ED
:103890008860039840790299490000FA01F204997E
:1038A000886810438860BDF80810012000FA01F212
:1038B000049948689043486003988079BDF80810DF
:1038C000884082B20499486810434860FFE7BDF819
:1038D00008004100032000FA01F20499C8689043EF
:1038E000C8600398C0790299490000FA01F204996E
:1038F000C8681043C860FFE7FFE7029801300290F4
:103900008FE705B07047000084B00390ADF80A104F
:103910008DF809200020019000909DF80900BDF865
:103920000A1001F00701890088400190BDF80A30B3
:1039300003F0070081000F2000FA01F203986FF0F6
:10394000030101EA53010144086A904308620398A5
:10395000BDF80A1047F6FC7202EA51010844006AF9
:1039600001990843009000980399BDF80A3002EAD3
:1039700053021144086204B07047000082B0019005
:10398000ADF8021000208DF8010001980069BDF823
:103990000210084204D0FFE701208DF8010003E087
:1039A00000208DF80100FFE79DF8010002B070478C
:1039B00082B00190ADF80210BDF802000199488371
:1039C00002B0704782B00190ADF80210BDF802005D
:1039D0000199088302B07047FFE7FEE780B598B011
:1039E00015200121079100F005FD07994FF4807023
:1039F00000F054FD10200B90169003208DF85C0011
:103A0000002004908DF85F000020C4F202000890AE
:103A100016A90291FFF7FCFE0299049B079A0898E9
:103A20004FF0200CCDF824C0CDF858C08DF85C20A4
:103A30008DF85E30022301938DF85D308DF85F20A4
:103A4000FFF7E6FE019A0299049B0798DDF82CC067
:103A5000CDF858C08DF85C008DF85E308DF85D2093
:103A60008DF85F0040F60000C4F202000A90FFF7F4
:103A7000CFFE0299049A079816908DF85C208DF875
:103A80005F0041F20000C4F20200FFF7C1FE12A87D
:103A90000390FEF74DF903984FF480311391FEF730
:103AA00025F90CA80590FEF78BFA049A059907985A
:103AB0000C928DF834208DF835200E9210928DF8EE
:103AC000440042F20000C4F201000690FEF760F9E3
:103AD00006980799FEF7F4F808980999FFF768FF28
:103AE0000A980B99FFF764FF18B080BD80B588B0C5
:103AF0000020C4F20200039020210491FFF758FF38
:103B000040F60000C4F20200059010210691FFF774
:103B10004FFF00F08BFA05980699FFF753FF00F06E
:103B200085FA03980499FFF743FF00F07FFA0398A2
:103B30000499FFF747FF00F079FA05980699FFF717
:103B400037FF00F073FA00200790FFE707987F28FF
:103B500021D8FFE70020C4F2020002902021019149
:103B6000FFF726FF00F062FA00F018FA019902460A
:103B700002981209DDF81CC040F2A823C2F200032B
:103B800023F81C20FFF71EFF00F050FAFFE707980C
:103B900001300790DAE708B080BD000080B5FFF77C
:103BA0001DFF80BD40F2C810C2F2000000787047CF
:103BB00084B040F2A820C2F200004189ADF80E1096
:103BC0004089ADF80C000520ADF80A007A21ADF867
:103BD000081000218DF805108DF80410ADF80600CE
:103BE000FFE7BDF806007A2837D8FFE7BDF80610D2
:103BF00040F2A820C2F2000030F81100BDF80E100B
:103C000088420BDDFFE7BDF8061040F2A820C2F2A3
:103C1000000030F81100ADF80E00FFE7BDF8061007
:103C200040F2A820C2F2000030F81100BDF80C10DC
:103C300088420BDAFFE7BDF8061040F2A820C2F276
:103C4000000030F81100ADF80C00FFE7FFE7BDF809
:103C500006000130ADF80600C3E7BDF80E00BDF860
:103C60000C100844400840F2DC11C2F20001088048
:103C70000520ADF80600FFE7BDF80600742875D8EA
:103C8000FFE7BDF8061040F2A820C2F2000030F8AD
:103C9000110040F2DC11C2F20001098888425EDDA9
:103CA000FFE7BDF8061040F2A820C2F2000000EBCA
:103CB0004100408840F2DC11C2F2000109888842CC
:103CC0004DDDFFE7BDF8061040F2A820C2F200006B
:103CD00000EB4100808840F2DC11C2F2000109884B
:103CE00088423CDDFFE7BDF8061040F2A820C2F292
:103CF000000000EB4100C08840F2DC11C2F200017C
:103D0000098888422BDAFFE7BDF8061040F2A820A8
:103D1000C2F2000000EB4100008940F2DC11C2F267
:103D20000001098888421ADAFFE7BDF8061040F260
:103D3000A820C2F2000000EB4100408940F2DC11F3
:103D4000C2F200010988884209DAFFE7BDF80600DF
:103D50000230ADF80A0001208DF8050006E0FFE70B
:103D6000BDF806000130ADF8060085E77520ADF816
:103D70000600FFE7BDF80600062875D3FFE7BDF88B
:103D8000061040F2A820C2F2000030F8110040F204
:103D9000DC11C2F20001098888425EDAFFE7BDF853
:103DA000061040F2A820C2F2000000EB410040885B
:103DB00040F2DC11C2F20001098888424DDAFFE7C7
:103DC000BDF8061040F2A820C2F2000000EB41004E
:103DD000808840F2DC11C2F20001098888423CDA96
:103DE000FFE7BDF8061040F2A820C2F2000000EB89
:103DF0004100C08840F2DC11C2F20001098888420B
:103E00002BDDFFE7BDF8061040F2A820C2F200004B
:103E100000EB4100008940F2DC11C2F20001098888
:103E200088421ADDFFE7BDF8061040F2A820C2F272
:103E3000000000EB4100408940F2DC11C2F20001B9
:103E40000988884209DDFFE7BDF806000230ADF8B9
:103E5000080001208DF8040006E0FFE7BDF8060029
:103E60000138ADF8060085E79DF8050058B1FFE779
:103E70009DF8040038B1FFE7BDF80800BDF80A104E
:103E800088422CDCFFE740F21601C2F2000101205B
:103E9000087040F2C011C2F200010020087040F228
:103EA000DE11C2F20001088040F21401C2F20001EA
:103EB0003F20088040F2B840C2F20000B0F9001084
:103EC0004FF61840CFF6FF70B1F1FF3FC8BF4FF477
:103ED0007A7040F2D611C2F2000108805BE0BDF8B2
:103EE0000800BDF80A10401A40F2DE11C2F20001CB
:103EF0000880BDF80800BDF80A100844410840F2E7
:103F00001400C2F20000018000883F384FF47A713B
:103F1000414342F28300C8F2082050FB01114809D6
:103F200000EBD170ADF80200BDF90200B0F57A7F68
:103F300005DDFFE74FF47A70ADF802000BE0BDF944
:103F4000020010F57A7F05DAFFE74FF61840ADF86A
:103F50000200FFE7FFE7BDF8020040F2D611C2F20F
:103F60000001088040F2DE11C2F200010A88002040
:103F7000042A024638BF012240F21603C2F20003AF
:103F80001A7009881E2988BF012040F2C011C2F2B0
:103F900000010870FFE704B07047000080B582B0F0
:103FA00042F20000C4F20100019004210122072323
:103FB000FDF73EFF0198FDF7F9FFFFE742F2000031
:103FC000C4F201000221FDF7C9FE08B9FFE7F5E7D9
:103FD00042F20000C4F20100FDF7B8FE02B080BD5D
:103FE00081B08DF803009DF80310002918BF01214E
:103FF00040F2C810C2F20000017040F2D012C2F2CA
:104000000002116801311160007860B9FFE740F2E9
:10401000D411C2F200010020088040F2DA11C2F28D
:1040200000010880FFE701B07047000081B0002068
:104030000090FFE700981D2806D8FFE700BFFFE7C4
:10404000009801300090F5E701B0704780B588B066
:10405000ADF81E0000F0B4FC0190019840F2B041B0
:10406000C2F200010968401A42F21071884271D30D
:10407000FFE7019840F2B041C2F200010860FFF78B
:1040800035FD40F2D810C2F200000078A8B3FFE777
:1040900000200090FFE700987F2814D8FFE7009ADF
:1040A000C2F17F0140F2A820C2F2000030F81100F6
:1040B00040F2A831C2F2000121F81200FFE7009897
:1040C00001300090E7E700200090FFE700987F288C
:1040D00012D8FFE7009A40F2A830C2F2000030F890
:1040E000120040F2A821C2F2000121F81200FFE7FD
:1040F000009801300090E9E7FFE7FFF759FD40F233
:10410000CC11C2F2000108680130086040F2C01012
:10411000C2F200000078E0B1FFE7019840F2B4413C
:10412000C2F200010968401A40F64051C0F2030192
:1041300088420ED3FFE7019840F2B441C2F2000179
:10414000086040F2C411C2F2000108680130086042
:10415000FFE7FFE740F2C810C2F20000007820B18C
:10416000FFE7BDF81E0060B9FFE740F2D411C2F2CC
:1041700000010020088040F2DA11C2F2000108803C
:10418000BEE0BDF81E0042F6E061484344F6D3515C
:10419000C1F26201A0FB01010020A0EB911006908A
:1041A00040F2D810C2F20000007820B1FFE7069874
:1041B00040420690FFE740F21600C2F2000000788D
:1041C00088B1FFE740F2B840C2F20000B0F9001039
:1041D0004EF69000CFF6FF70B1F1FF3FC8BF41F23D
:1041E0007070059019E040F2D610C2F20000B0F9EC
:1041F000001040F2B842C2F20002B2F90020891A5F
:104200000491B0F9000000EB800040000590049993
:10421000059800EB81000590FFE7059842F22931EF
:10422000884204DBFFE742F2283005900EE0059853
:104230004DF6D741CFF6FF71884206DCFFE74DF619
:10424000D840CFF6FF700590FFE7FFE740F2D810A7
:10425000C2F20000007848B1FFE706980599401ABD
:104260000390069805990844029008E0069805997D
:104270000844039006980599401A0290FFE70398B6
:10428000B0F57A5F04DDFFE74FF47A5003900BE05E
:10429000039810F57A5F06DAFFE74CF28010CFF64C
:1042A000FF700390FFE7FFE70298B0F57A5F04DD47
:1042B000FFE74FF47A5002900BE0029810F57A5F16
:1042C00006DAFFE74CF28010CFF6FF700290FFE7AE
:1042D000FFE7039840F2D411C2F20001088002986F
:1042E00040F2DA11C2F20001088040F2D610C2F2A8
:1042F0000000008840F2B841C2F200010880FFE7E8
:1043000008B080BDFFE7FEE77047000082B0019073
:1043100000208DF803008DF802000F208DF80100B9
:104320000198C078002845D0FFE74EF60C50CEF239
:1043300000000068C043C0F302208DF803009DF820
:104340000300C0F104008DF802009DF801009DF803
:104350000310C8408DF80100019840789DF80210C4
:1043600088408DF80300019880789DF80110014085
:104370009DF8030008438DF803009DF80300000139
:104380008DF803009DF80300019909784EF2004270
:10439000CEF2000288540198027802F01F01012039
:1043A00088401C2101EAD2014EF20012CEF2000236
:1043B00088500EE00198027802F01F010120884029
:1043C0001C2101EAD2014EF28012CEF20002885086
:1043D000FFE702B07047000081B000900098002114
:1043E000C0F2FA5108434EF60C51CEF200010860BB
:1043F00001B0704782B001908DF803109DF8030062
:1044000048B1FFE7019A43F63001C4F2020108689F
:104410001043086008E0019A43F63001C4F202013B
:10442000086890430860FFE702B0704782B00190CF
:104430008DF803109DF8030048B1FFE7019A43F699
:104440004001C4F2020108681043086008E0019AC4
:1044500043F64001C4F20201086890430860FFE798
:1044600002B0704782B001908DF803109DF80300F0
:1044700048B1FFE7019A43F62001C4F2020108683F
:104480001043086008E0019A43F62001C4F20201DB
:10449000086890430860FFE702B0704782B001905F
:1044A0008DF803109DF8030048B1FFE7019A43F629
:1044B0004401C4F2020108681043086008E0019A50
:1044C00043F64401C4F20201086890430860FFE724
:1044D00002B0704788B007900021069105910491C1
:1044E000022003900291019043F60800C4F20200FA
:1044F000006800F00C0006900698009040B1FFE7BD
:10450000009804280BD0FFE7009808280ED050E050
:10451000079942F20040C0F2F400086050E00799A9
:1045200041F20020C0F27A00086049E043F604003E
:10453000C4F202000168C1F380510291006800F0EA
:104540003F000190029888B1FFE7019941F20020F5
:10455000C0F27A00B0FBF1F043F60401C4F20201AC
:104560000968C1F388114843049010E0019942F2B0
:104570000040C0F2F400B0FBF1F043F60401C4F2D5
:1045800002010968C1F3881148430490FFE743F62C
:104590000400C4F20200006800F44031022000EB85
:1045A000D130039004980399B0FBF1F007990860AB
:1045B00006E0079942F20040C0F2F4000860FFE70D
:1045C00043F60801C4F20201086800F0F00006900A
:1045D000069800090690069A46F28C60C0F6000024
:1045E000825C0592079B1A68DDF814C022FA0CF26F
:1045F0005A600A6802F4E0520692069A920A0692FB
:10460000069A825C0592079B5A68DDF814C022FA6C
:104610000CF29A60096801F4604106910699490B11
:1046200006910699405C059007994868059AD04024
:10463000C86008B07047000083B0ADF80800ADF85E
:104640000610BDF80800B0F5487F07D3FFE7BDF8B6
:10465000080040F69901884204D3FFE701208DF855
:104660000B0017E0BDF80800A0F2DC5000900098A5
:10467000B0F1FF3F04DCFFE7009840420090FFE705
:104680000099BDF8062000209142D8BF01208DF886
:104690000B00FFE79DF80B0003B0704782B0ADF848
:1046A0000400BDF80400B0F5487F07D3FFE7BDF86C
:1046B000040040F69901884204D3FFE70020ADF8DA
:1046C000060036E0BDF80400A0F2DC50009000982F
:1046D00010F1270F08DBFFE70098272804DCFFE72D
:1046E0000020ADF8060024E00098B0F5FA7F04DD64
:1046F000FFE74FF4FA7000900BE0009810F5FA7F96
:1047000006DAFFE74FF60C60CFF6FF700090FFE788
:10471000FFE700984FF47A71484344F6D351C1F251
:10472000620150FB01F1480900EBD170ADF80600C1
:10473000FFE7BDF9060002B07047000081B0ADF898
:104740000000BDF8000080087C2805D8FFE74FF482
:10475000FA70ADF8020010E0BDF8000040F6C51197
:10476000884205D3FFE740F6C410ADF8020004E02C
:10477000BDF80000ADF80200FFE7BDF8020001B08F
:104780007047000082B0ADF80400BDF80400B0F539
:10479000487F07D3FFE7BDF8040040F6990188423F
:1047A00004D3FFE70020ADF8060027E0BDF80400C1
:1047B000B0F57A7F04D8FFE70020ADF806001DE0D1
:1047C000BDF80400B0F5FA6F05D3FFE74FF47A7037
:1047D000ADF8060012E0BDF80400A0F57A70009074
:1047E00000984FF47A71484344F6D351C1F2620104
:1047F000A0FB01108009ADF80600FFE7BDF8060038
:1048000002B0704781B0ADF80000BDF80000B0F50F
:10481000487F07D3FFE7BDF8000040F699018842C2
:1048200004D3FFE701208DF8030019E0BDF8000074
:1048300040F21451884204D8FFE700208DF80300AD
:104840000EE0BDF8000040F2A461884204D3FFE707
:1048500002208DF8030003E001208DF80300FFE73C
:104860009DF8030001B0704780B5052000F0CEF838
:1048700080BD000080B5002000F0C8F880BD0000B9
:1048800080B5012000F0C2F880BD000080B5022094
:1048900000F0BCF8032000F0B9F8042000F0B6F8EE
:1048A00080BD000080B58AB0052001210291FFF78C
:1048B000A1FD02994FF48040FFF7F0FD4FF4E67040
:1048C0000890002104918DF8241002208DF8250015
:1048D0008DF826108DF827000020C4F2020008A9E8
:1048E0000391FEF795FF02980399089040F60000A7
:1048F000C4F20200FEF78CFF04988DF81700FFE762
:104900009DF8170005282BDCFFE79DF8170000EB4A
:10491000400146F29C60C0F60000019000EB81016E
:104920008879C97900F0EAF901989DF8171001EB30
:10493000410100EB81008068069000208DF81C008A
:1049400010208DF81D0001208DF81E0006A8FEF72E
:104950005FFCFFE79DF8170001308DF81700CFE7E7
:104960000AB080BD84B043F60800C4F202000068BB
:1049700080B2400B02900298032803D8FFE7012081
:10498000019005E00298C11E012088400190FFE7D8
:1049900040F21800C2F2000000680199B0FBF1F08B
:1049A00000900198012803D1FFE70098039003E0ED
:1049B000009840000390FFE7039804B070470000A0
:1049C00082B040F2D840C2F200000068019044F288
:1049D0002440C4F201000068ADF8020044F2104027
:1049E000C4F201000088C00750B1FFE7BDF9020022
:1049F000002805D4FFE7019800F580300190FFE71B
:104A00000198BDF80210084402B0704780B584B028
:104A10008DF80F009DF80F0000EB400146F29C60FE
:104A2000C0F6000000EB81008068FEF7D7FB08B9F4
:104A3000FFE78AE0FFF7C4FF02909DF80F2040F2E5
:104A40000021C2F2000151F82200013041F8220099
:104A50009DF80F0000EB400246F29C60C0F600009B
:104A600000EB820150F822008988FEF787FF01469B
:104A7000002918BF01219DF80F2040F23020C2F21A
:104A8000000081549DF80F10405CA8B1FFE79DF82D
:104A90000F2040F23821C2F2000151F8220001300B
:104AA00041F8220002989DF80F2040F2C041C2F266
:104AB000000141F8220033E09DF80F2040F2182158
:104AC000C2F2000151F82200013041F822000298A0
:104AD0009DF80F2040F2C041C2F2000151F82210AF
:104AE000401A01900198B0F5487F18D3FFE701986C
:104AF00040F69801884212D8FFE701989DF80F20F0
:104B000040F2E011C2F2000121F812009DF80F20DE
:104B100040F25021C2F2000101208854FFE7FFE774
:104B20009DF80F0018B9FFE700F040F8FFE79DF887
:104B30000F0000EB400146F29C60C0F6000000EB65
:104B400081008068FEF740FBFFE704B080BD0000F5
:104B500080B500F085F8FFF7A5FE00F001F880BDF4
:104B600080B582B002208DF805008DF80600012086
:104B70008DF8070006208DF8040001A80090FFF7CB
:104B8000C5FB009808218DF80410FFF7BFFB0098C3
:104B900009218DF80410FFF7B9FB009817218DF853
:104BA0000410FFF7B3FB02B080BD000040F2E0103C
:104BB000C2F20000008840F2F611C2F20001088043
:104BC00040F25020C2F20000007840F2FC11C2F224
:104BD0000001087040F23020C2F20000007840F27C
:104BE000F411C2F20001087040F20020C2F200008D
:104BF000006840F2EC11C2F20001086040F2382077
:104C0000C2F20000006840F2F811C2F20001086030
:104C100040F21820C2F20000006840F2F011C2F227
:104C2000000108607047000080B544F20040C4F203
:104C30000100012100F09CFA80B1FFE744F200403E
:104C4000C4F20100012100F071FA40F2D841C2F231
:104C50000001086800F580300860FFE780BD0000B3
:104C600080B58AB000F06AF94FF400300121039159
:104C7000FFF714FCFFF776FE059005984DF683616B
:104C8000C4F21B31A0FB01014FF0FF3000EB91405B
:104C9000ADF8120007A8019000F0F0FB0199BDF8F3
:104CA0001200ADF81C000020ADF81E004FF6FF7298
:104CB0000892ADF8240044F20040C4F201000290D2
:104CC00000F054FB0298039900F024FA0298039A2A
:104CD000114600F07BFA039819218DF818108DF811
:104CE00019008DF81A008DF81B0006A8FFF70EFBBF
:104CF0000298039900F026FA0AB080BD82B08DF8C0
:104D000007008DF80610002000909DF8060000F0C6
:104D1000030081000F2088400090009B9DF8060052
:104D200000F0FC0143F60802C4F2010288589843DF
:104D300088509DF807109DF8060000F003039B00C3
:104D400001FA03F300F0FC0188581843885002B0C0
:104D50007047000080B590B0042001210591FFF755
:104D600049FB059902200190FFF760FB019A40F68C
:104D70000000C4F2020002900621FEF7C5FD019971
:104D8000029840220E928DF83C108DF83D100021C3
:104D900003918DF83E108DF83F100EA9FEF738FDF7
:104DA000039844F61F610C915321ADF82C10ADF817
:104DB0003400ADF82E0040F20040C4F20000049030
:104DC0000BA900F0D3FA03990498059A6023ADF873
:104DD0001830ADF81A2040F20E02C2F2000212881A
:104DE0000892ADF8241006A900F00AFA04980821E8
:104DF00000F09EFA0498059900F076F90498059958
:104E000000F0A0F910B080BD83B0002002900190A6
:104E100043F60001C4F20201086840F480300860E3
:104E2000FFE743F60000C4F20200006800F400301F
:104E30000190029801300290FFE701990020009054
:104E400039B9FFE70298B0F5A04018BF01200090E3
:104E5000FFE70098C0070028E3D1FFE743F6000012
:104E6000C4F2020000688003002803D5FFE7012098
:104E7000019002E000200190FFE7019801285AD13B
:104E8000FFE743F64001C4F20201086840F0805099
:104E9000086047F20001C4F20001086840F4404095
:104EA000086043F60801C4F2020108680860086857
:104EB00040F400400860086840F4A050086043F6E1
:104EC0000401C4F2020145F20840C0F240700860DB
:104ED00043F60001C4F20201086840F080700860E7
:104EE000FFE743F60000C4F20200006880010028DA
:104EF00001D4FFE7F5E743F60041C4F2020140F2B6
:104F00000570086043F60801C4F20201086820F049
:104F100003000860086840F002000860FFE743F6FD
:104F20000800C4F20200006800F00C00082801D05C
:104F3000FFE7F4E700E0FFE703B0704786B0002129
:104F400005910491022003900291019043F608001C
:104F5000C4F20200006800F00C0005900598009073
:104F600040B1FFE7009804280ED0FFE7009808281A
:104F700014D059E040F21801C2F2000142F20040A0
:104F8000C0F2F400086059E040F21801C2F20001DA
:104F900041F20020C0F27A0008604FE043F60400BE
:104FA000C4F202000168C1F380510291006800F070
:104FB0003F000190029888B1FFE7019941F200207B
:104FC000C0F27A00B0FBF1F043F60401C4F2020132
:104FD0000968C1F388114843049010E0019942F236
:104FE0000040C0F2F400B0FBF1F043F60401C4F25B
:104FF00002010968C1F3881148430490FFE743F6B2
:105000000400C4F20200006800F44031022000EB0A
:10501000D130039004980399B0FBF1F040F21801ED
:10502000C2F20001086009E040F21801C2F200017A
:1050300042F20040C0F2F4000860FFE743F60800C7
:10504000C4F202000068C0B2010946F27C60C0F6FA
:105050000000405C0590059A40F21801C2F2000180
:105060000868D040086006B07047000080B54EF672
:105070008851CEF20001086840F47000086043F6E1
:105080000002C4F20202106840F00100106043F612
:105090000801C4F202010020086011684FF6FF7396
:1050A000CFF6F6631940116043F60403C4F202031D
:1050B00043F21001C2F200411960116821F480210D
:1050C000116043F60C01C4F202010860FFF79CFE78
:1050D0004EF60851CEF200014FF00060086080BD2E
:1050E00080B5FFF7A1FD80BD82B001908DF803105F
:1050F0009DF8030030B1FFE70199088840F0800077
:10510000088005E00199088820F080000880FFE70A
:1051100002B0704782B00190ADF80210BDF80200F5
:10512000C0430199088202B07047000082B001902C
:10513000ADF80210BDF80200C0430199088202B028
:105140007047000082B001908DF803109DF80300B5
:1051500030B1FFE70199088840F00100088005E0C0
:105160000199088820F001000880FFE702B070472D
:1051700083B00290ADF8061000208DF80500ADF860
:105180000200ADF800000298008ABDF80610084041
:10519000ADF8020002988089BDF806100840ADF80D
:1051A0000000BDF8020040B1FFE7BDF8000020B1EB
:1051B000FFE701208DF8050003E000208DF80500D1
:1051C000FFE79DF8050003B07047000082B0019032
:1051D000ADF802108DF801209DF8010038B1FFE70D
:1051E000BDF80220019988891043888106E0BDF846
:1051F00002200199888990438881FFE702B07047B7
:1052000084B0039002910020ADF80600ADF80400D0
:10521000ADF802000399088C20F00100088403987F
:10522000008CADF8040003988088ADF80200039864
:10523000008BADF80600BDF8060020F07000ADF858
:105240000600BDF8060020F00300ADF80600029845
:105250000188BDF806000843ADF80600BDF804005B
:1052600020F00200ADF8040002988189BDF8040026
:105270000843ADF8040002984188BDF804000843D3
:10528000ADF8040003980021C4F20101884208D05F
:10529000FFE7039840F20041C4F20101884235D192
:1052A000FFE7BDF8040020F00800ADF80400029804
:1052B000C189BDF804000843ADF80400BDF804003E
:1052C00020F00400ADF8040002988188BDF80400C5
:1052D0000843ADF80400BDF8020020F48070ADF87A
:1052E0000200BDF8020020F40070ADF80200029840
:1052F000018ABDF802000843ADF802000298418A15
:10530000BDF802000843ADF80200FFE7BDF8020057
:1053100003998880BDF80600039908830298806885
:1053200003994863BDF804000399088404B07047EA
:1053300082B00190ADF802100020ADF80000019895
:10534000008BADF80000BDF8000020F00800ADF8BB
:105350000000BDF80210BDF800000843ADF80000E1
:10536000BDF800000199088302B0704783B0029035
:1053700001910020ADF8020002980088ADF802000B
:1053800002980021C4F20101884225D0FFE702986B
:1053900040F20041C4F2010188421DD0FFE70298AB
:1053A000B0F1804F18D0FFE7029840F20041C4F2FC
:1053B0000001884210D0FFE7029840F60001C4F2D5
:1053C0000001884208D0FFE7029840F60041C4F28D
:1053D000000188420ED1FFE7BDF8020020F0700006
:1053E000ADF8020001984188BDF802000843ADF80D
:1053F0000200FFE7029841F20001C4F20001884276
:1054000016D0FFE7029841F20041C4F20001884241
:105410000ED0FFE7BDF8020020F44070ADF80200A6
:1054200001980189BDF802000843ADF80200FFE7CA
:10543000BDF8020002990880019840680299C8628C
:10544000019800880299088502980021C4F20101A0
:10545000884208D0FFE7029840F20041C4F20101FF
:10546000884205D1FFE70198807A02990886FFE714
:1054700002990120888203B07047000081B000903B
:1054800000994FF0FF304860009900200880009993
:105490000881009948800099887201B07047000027
:1054A00082B001908DF803109DF8030030B1FFE742
:1054B0000199888940F40050888105E00199888924
:1054C00020F400508881FFE702B0704782B001905D
:1054D000ADF8021000208DF80100BDF80200B0F513
:1054E000007F01D1FFE7FFE701980088BDF80210B7
:1054F0000840000420B1FFE701208DF8010003E01F
:1055000000208DF80100FFE79DF8010002B0704710
:1055100080B58AB009900891002007900690059008
:1055200004900898808908B1FFE7FFE70998008A8E
:105530000790079820F4405007900898C188079872
:10554000084307900798099908820998808907906D
:10555000079841F20C6188430790089988880A8966
:105560001043498901430798084307900798099910
:1055700088810998808A0790079820F440700790E6
:1055800008988189079808430790079809998882A5
:105590006846FEF79FFF099841F20001C4F201013D
:1055A000884208D0FFE7099841F20041C4F20101A6
:1055B000884203D1FFE70398069002E00298069024
:1055C000FFE709988089000400280AD5FFE70698BC
:1055D00019214843089909684900B0FBF1F005908A
:1055E00009E0069819214843089909688900B0FB29
:1055F000F1F00590FFE7059848F21F51C5F2EB1155
:10560000A0FB01016FF00F0000EA51000790059A1E
:1056100007980009642100FB1120049009988089F3
:105620000004002810D5FFE70499322000EBC100E8
:1056300048F21F51C5F2EB11A0FB0110C0F342115B
:105640000798084307900FE00499322000EB0110FF
:1056500048F21F51C5F2EB11A0FB0110C0F343113A
:10566000079808430790FFE70798099908810AB04F
:1056700080BD000082B00190ADF80210BDF80200BC
:105680006FF35F200199888002B07047FFE7FEE763
:1056900080B500F0FFF980BD80B584B000218DF8A1
:1056A0000C108DF80D1001208DF80E00ADF80210D1
:1056B000ADF80410ADF80610ADF80810ADF80A10FA
:1056C0008DF80F000DF10200FDF728F804B080BD41
:1056D00080B586B0082001210091FEF78BFE00996D
:1056E0004FF00070FEF7A2FE40F60040C4F2020048
:1056F00003900021029109220192FEF705F9009919
:10570000019A0398FEF700F9029903980322049284
:1057100002238DF814308DF815208DF816108DF8B1
:10572000171004A9FEF774F806B080BD80B588B0E4
:10573000FFF7CEFF00F03CF846F20040C4F2000054
:105740000290FCF7C7FF05A80190FDF72DFB01991A
:10575000029800228DF81A20012304938DF81B3043
:105760008DF81C308DF81D208DF81E208DF81F201F
:105770008DF816208DF8172009228DF818200222A6
:1057800003928DF819200622ADF81420FDF75AF97E
:1057900040F25921C2F200010870FFF77DFF029824
:1057A0000399049AFDF736F900F074F908B080BD4A
:1057B00080B582B014208DF8040002208DF8050019
:1057C00001208DF806008DF8070001A8FEF79EFD68
:1057D00002B080BD80B58AB046F20040C4F200003D
:1057E0000221FDF749F808B9FFE78BE046F20040D7
:1057F000C4F2000000900221FCF7F4FE00980021A2
:1058000005AAFDF727FA40F29021C2F200010868CC
:105810000130086000F03EF99DF81C00042801D01A
:10582000FFE76FE0069804900498000A8DF80F00D7
:1058300004988DF80E009DF80F00092805D1FFE7A8
:105840009DF81E00072801D8FFE75BE0DDF81F0088
:1058500000BA02909DF823109DF8240040EA012030
:10586000ADF806009DF825109DF8260040EA0120BD
:10587000ADF804009DF80E0040F26821C2F200016C
:1058800008709DF80E0001281BD1FFE7029840F236
:105890007821C2F200010860BDF8060040F27421D0
:1058A000C2F200010880BDF8040040F27621C2F285
:1058B0000001088040F27C21C2F200010120087042
:1058C00020E09DF80E0002281BD1FFE7029840F26D
:1058D0008821C2F200010860BDF8060040F2842170
:1058E000C2F200010880BDF8040040F28621C2F235
:1058F0000001088040F28C21C2F2000101200870F2
:10590000FFE7FFE70AB080BD80B58AB08DF82700B9
:105910008DF8261008928DF81F309DF827109DF8FD
:10592000260040EA01200190002002900199039195
:1059300004218DF810108DF811009DF81F108DF8BE
:1059400012109DF823108DF81310BDF822108DF859
:1059500014100899090A8DF8151008998DF8161079
:105960008DF817008DF818008DF819008DF81A00C1
:1059700046F20040C4F2000002A9FDF733FA8DF8A8
:1059800003009DF8030040F21C01C2F20001087000
:1059900040F29821C2F2000108680130086000F06E
:1059A00079F89DF8030003280ED3FFE740F21D01AC
:1059B000C2F20001FF20087040F2A021C2F20001F3
:1059C0000868013008602BE09DF8031046F20040A3
:1059D000C4F20000FDF7A8FA8DF802009DF802005D
:1059E00040F21D01C2F2000108709DF8020001287A
:1059F00008D1FFE740F2A421C2F20001086801309B
:105A000008600CE09DF8020040B9FFE740F29C21DD
:105A1000C2F20001086801300860FFE7FFE7FFE716
:105A200000F038F80AB080BD80B582B08DF807006C
:105A300000919DF80710009A02200423FFF764FFED
:105A400002B080BD80B582B08DF8070000919DF84E
:105A50000710009A03200823FFF756FF9DF8070060
:105A6000012807D1FFE7009840F27021C2F200013F
:105A700008600CE09DF80700022807D1FFE70098B6
:105A800040F28021C2F200010860FFE7FFE702B0A8
:105A900080BD000080B546F20840C4F200000068F6
:105AA00040F26C21C2F20001086046F21840C4F2D4
:105AB0000000016840F25C22C2F20002116046F26E
:105AC0000441C4F20001096840F26422C2F20002FB
:105AD00011600168C1F3021140F26022C2F20002BB
